:10000000485A0020311800006F6300001D180000DE
:100010001D1800001D1800001D1800001D1800000C
:10002000000000000000000000000000DD190000DA
:100030001D180000000000009D1900001D180000A0
:100040005D1B00005D1B00005D1B00005D1B0000D0
:100050005D1B00005D1B00005D1B00005D1B0000C0
:100060005D1B00005D1B00005D1B00005D1B0000B0
:100070005D1B00005D1B00005D1B00005D1B0000A0
:100080005D1B00005D1B00005D1B00005D1B000090
:100090005D1B00005D1B00005D1B00005D1B000080
:1000A0005D1B00005D1B00005D1B00005D1B000070
:1000B0005D1B00005D1B00005D1B00005D1B000060
:1000C0005D1B00005D1B00005D1B00005D1B000050
:1000D0005D1B00005D1B00005D1B00005D1B000040
:1000E0005D1B00005D1B00005D1B00005D1B000030
:1000F0005D1B00005D1B00005D1B00005D1B000020
:100100005D1B00005D1B00005D1B00005D1B00000F
:100110005D1B00005D1B00005D1B00005D1B0000FF
:100120005D1B00005D1B00005D1B00005D1B0000EF
:100130005D1B00005D1B00005D1B00005D1B0000DF
:100140005D1B00005D1B00005D1B00005D1B0000CF
:040150005D1B000033
:10015400034613F8012B002AFBD1181A0138704703
:1001640038B5037804467BB10B4D0C4B28780C4A08
:100174004FF4486100280CBF1046184604F0BCF93F
:100184002B7883F001032B70636823B1054A136055
:100194000122054B1A7038BDFC400020FC270020CA
:1001A400FC0E0020B0050020FD4000202DE9F043A6
:1001B400444887B005F012FF434805F00FFF1822AA
:1001C4000021684606F0FDFD252227234FF0086133
:1001D400CDE901233D4B6846CDE903133C4904F0C6
:1001E4004DF93C4B0146984265D10022012126205D
:1001F40006F0D2F8262001F013FC4FF4486136488B
:1002040004F07AF94FF44861344804F075F904F0C5
:1002140059F9334C334E344F2378002B46D0002306
:100224001A4619463568237035F911C002318CEA33
:10023400EC70A0EBEC7080B29042C8BF02B2B1F592
:10024400486F0CFB0C33EFD14FF4C8610F20B3FBA4
:10025400F1F34FF00108002100F1010C4FEA400EC8
:1002640001FA0CFC08FA0EFEF4449C459EBFA3EB75
:100274000C0308FA00FC41EA0C010138ECD23846C0
:1002840005F0ACFE194805F0A9FE4FF00108DFF8AF
:10029400609035F91810484608F1020805F09EFEF2
:1002A400B8F1210FF5D1134805F098FE0021212063
:1002B40004F090FFB0E7104805F090FE002007B06E
:1002C400BDE8F08398720000AE7200002828070091
:1002D400650100000000AD0BFC270020FC0E00208F
:1002E400FD400020B0050020DB720000EF7200002A
:1002F400FE72000022730000C17200002DE9F04F6D
:1003040091B0009302F004030293C2F3C2030133D9
:10031400840705460E46DDF868900392059340F085
:10032400BB81041D30B1072909D86FF01B0011B03F
:10033400BDE8F08F01F00706341DC6F10806009BE6
:100344004FF000084FF0040A591E4FF0FF334746A0
:100354000193C3465346CDF810800DB1009A226034
:100364000598002800F3E8809848009A824203D355
:1003740097488242C0F0E080039AA4EB050E9207EE
:100384004FEA9E0000F103810F2F00F2B180002D8F
:1003940000F0058107F140020DEB020C019A0CF804
:1003A400200C0CF8102C049801300490E7E07A2813
:1003B4005DD84B280ED8472859D829282DD8252868
:1003C40052D054D820287AD02338D0F1000B4BEBEC
:1003D400000B74E04C382E2849D8DFE800F0704850
:1003E400484848484848484848484B484848484886
:1003F40048484859484B4B595959704B6D487048B7
:10040400184B184848827F4B48484B487F000020CF
:100414004FF0000B4FF0040A38E001222A38C0B232
:1004240002FA00F010EA0E0F49D110F0625C2FD1ED
:1004340010EA020B43D06046013C5444B4FBFAF486
:100444000AFB04F4002D61D0A3EB050CA444B445CD
:100454003FF66BAF002868D1042B47D159F8043B11
:100464002360042304342AE0019A013A01924FF0F4
:10047400000B24E011F8010C6C2834D1002011F891
:10048400023C83466C2BC5D14FF0080A5346D3E790
:1004940009F1070929F00709073424F00704F9E8EA
:1004A40002AB35B106982044B0423FF63EAFC4E9F2
:1004B40000AB4FF0000B08344FF0080A534611F814
:1004C400010F002878D0BBF1000F7FF470AF25280E
:1004D400F5D14FF0010B019B013301934FF0040A56
:1004E400ECE7584694E700208346A5E7082B02D0A2
:1004F4006FF015001BE709F1070929F00709F9E86E
:100504000223C4E9002308230834D8E768B9042B7C
:1005140002D109F10409A4E7082BE9D109F107097B
:1005240029F0070909F10809EDE7059A013A05924E
:1005340059F8042B009210E7039A900720D54FF046
:10054400010CA4EB050E4FEA9E00BEF5007FCFD24E
:100554000F2FCDD8F5B107F140020DEB020E019A31
:10056400C0B20EF8200C0EF8102CBCF1000F3FF4B2
:100574001AAF60F07F000EF8200C08F10108013773
:10058400C5F108024FF6DA7E0434069297E74FF07D
:10059400000CDAE7BCF1000F01D00136EFE7029856
:1005A40002360028EBD10098CDE90631FFF7D0FDE3
:1005B400DDE906310644E2E7631BB3F5806F97D2A9
:1005C40045B9A6F10804E018B1E600BFB06E00001A
:1005D400C07B0000029A9B0828602B709DF81030A5
:1005E400C2B1EB7085F80280B8F1000F05D000228B
:1005F40008A8C5F1010C97420ED14FF0000AC5F1CD
:1006040001030DF1200901930DF1300B574512D16F
:10061400601B8CE66B70E5E710F8013B190608D502
:1006240004EB0C0EB64503F07F033FF67EAE04F8F0
:10063400013B0132DFE7B8F1000F03D099F9002044
:10064400002A17DB029BD3B11AF80B2004F8012B04
:100654000022019B98182044B0423FF666AE99F8F8
:100664000000009904F8010B2046039206F09CFB5D
:10067400039A14440AF1010A09F10109C6E799F839
:10068400002055F822300093029B009845F8223050
:10069400FFF75EFD421CDCE76FF00D0047E600BF8C
:1006A400014B1860704700BF0000002080B505466C
:1006B4000E461746984604F0ABFD034606F0ECFBE5
:1006C4000446DFF81890424649F80030394630466F
:1006D400A84754F8090001F011F900BF0800000010
:1006E4002DE9F047058B04462807904611D40229CA
:1006F40005F0070540F0CC80204605F07CFC78B17D
:100704000138218B042811D8DFE800F0C2106D8570
:10071400950001290CBF45F0100545F020052583FF
:1007240088F31188BFF36F8FBDE8F08701F0070AE3
:10073400AA4500F0A5800027B9463E46A368002BD1
:1007440000F0BC8041F00801218388F31188BFF3D5
:100754006F8FA168002900F0BA800D68002900F0AD
:10076400B680334652462046D1F80480C047002D57
:1007740076D02B6829461D46F0E701F007035A1F7F
:10078400012A1BD8002221F00701062B276889B211
:10079400C4E9002209D13B4603E0628B0132628343
:1007A4001B68002BF9D141F002012046218305F09A
:1007B40022FC00287AD041F0200176E0042B0AD1F3
:1007C40021F0070189B22046218305F014FC10B101
:1007D40041F020012183218B01F0070AAA454FD063
:1007E4000027B946AAE7236921F0070141F0060171
:1007F400062DD3F8009021832DD1B9F1000F3FD0FD
:1008040041F00801218388F31188BFF36F8F2046DC
:100814003949C84729E021F00701236941F004015F
:1008240089B2042DD3F804902183E6D000274FF039
:10083400040A3E4682E721F00701236941F00501DD
:1008440089B2052DD3F808902183D6D000274FF024
:10085400050A3E4672E700274FF0060A3E466DE75A
:100864002B4687E7B9F1000FD1D1EFF3118820238C
:1008740083F31288BFF36F8F238B23F00803238342
:10088400258BEA062ED525F01003238305F00705F2
:100894006669218B002EBFF670AF00232768C4E978
:1008A400003321F0070141F001012183218B4FF036
:1008B400000901F0070AAA457FF440AF002F9CD03D
:1008C40041F00801218388F31188BFF36F8F002F53
:1008D400C8D03D68394633465246204605F0B7FB3A
:1008E4002F46F4E7AB067FF51BAF25F020032383E7
:1008F40005F0070500E700BF7F6000002DE9F84F11
:1009040081462F480F4605F052FC064670B92D4C1F
:100914000546A0464FF0010BDFF8ACA0544507D3C1
:10092400B9F1000F02D04FF0010AE5B9BDE8F88F24
:10093400237B6BB12368DB680BB12046984723689F
:100944001B6943B9636804222046196800F0C4F89F
:1009540001361034E2E7204698470028F2D00BFA1B
:1009640006F31D43F4E7A94695FAA5F4B4FA84F412
:100974000AFA04F3260108EB04146FEA030B25EAD0
:100984000305237B63B158F806301B6993B94644C9
:10099400736804222046196809EA0B0900F09CF8E0
:1009A400002DE1D127B14FF4A470002104F012FC12
:1009B4004D46BAE7204698470028F1D1E7E700BF43
:1009C400BC050020EC6F0000FC6F0000014B53F8E5
:1009D400200070470870000008B5034608462BB194
:1009E400044A136000F068FA002008BD6FF0150097
:1009F400FBE700BF040000200023054A4FF4004138
:100A04001370044A04481360044A1360FFF7E4BFF8
:100A1400FE400020B4050020AF610000B8050020AE
:100A240070B50B4D297841B90120FFF767FF094CD8
:100A3400094EB44202D301232B7070BD63685B7905
:100A44001BB1236820469B6898471034F1E700BF28
:100A5400FE400020EC6F0000FC6F000010B504465F
:100A6400064805F0A4FB3CB1054BD3E8EF1F013960
:100A7400C3E8E21F002AF8D110BD00BFB40500206E
:100A8400B805002070B50A4B05461B689847094C09
:100A9400094EA860B44200D370BD63685B7923B18A
:100AA4002368294620461B6898471034F2E700BFA4
:100AB40004000020EC6F0000FC6F0000044A054BAA
:100AC4009B1AB1EBD30F34BF52F8310000207047AA
:100AD400946F0000EC6F0000084B10B4C31A446814
:100AE4001B110133237143689A7101224368196011
:100AF40043685A7110BC05F078BB00BFEC6F00006E
:100B04002DE9F04F85B002AF0446D7E90EA90E4691
:100B1400934698463D6BBAF1000F33D0C7F8049062
:100B2400CDF800901021534600207A6BFFF7E6FBC6
:100B34000146154A04F007040BF0070BE40044EAED
:100B44008B1402EA4122144344EA055417350D4438
:100B540025F00705ADEB050D02ADBAF1000F07D086
:100B6400CDF8009053467A6B05F11000FFF7C6FBF1
:100B7400434622463146284605F03AFB0C37BD462B
:100B8400BDE8F08F5146D4E700FE0F00406820B165
:100B9400034BC01A40F3CF0070474FF0FF3070474B
:100BA400946F00000EB403B503AB53F8042B014655
:100BB4000448019301F012FA02B05DF804EB03B0AB
:100BC400704700BF27620000CA0605D48B064CBFDD
:100BD40002490349FFF7E6BF704700BF22730000D4
:100BE400217300002DE9F04F89B09B46149B9DF8BA
:100BF4004CA00693159B04460593169B0D46904600
:100C0400179E0493BAF1000F00F09D8006F48073E0
:100C1400079305F0EBFA06F00209024600283ED0DD
:100C240020469149FFF7BEFF0746B9F1000F08D0EF
:100C340016F0440F35D12A4620468C49FFF7B2FFFF
:100C4400074406F0010353B1894B204653F82A2088
:100C5400884B8949002A08BF1A46FFF7A3FF06F408
:100C64008073002B49D006F00803002B63D1B8F140
:100C7400000F66D0424620468049FFF793FF0546A1
:100C8400069B3D44002B6DD1049B002B73D1F307CD
:100C940000F1E48031462046FFF796FFD8E007468E
:100CA400C3E7774B18680028CAD0764B4FF47A799B
:100CB4001B684FF46161B5FBF3F5B5FBF0F300FB82
:100CC400135509FB05F5B3FBF1F2B5FBF0FE4FF04C
:100CD4003C0C01FB123100FB1E55B1FBFCF309FB7C
:100CE40005F5B5FBF0F50CFB131120460091CDE999
:100CF40001E56549FFF756FFA2E706F00803EBB1EB
:100D0400624B204653F82A206149FFF74BFF054602
:100D1400B8F1000F05D0424620465849FFF742FF7C
:100D24000544BBF1000FABD05A4620465949FFF7A2
:100D340039FF0544A4E74FF0000BE1E706F008058E
:100D4400E6E745469CE7BBF1010F069B06D1002B65
:100D540064D1049B002B7BD000250CE0002BF8D041
:100D64004D485CE04D48069B22464D4905F003F989
:100D7400049B002B68D0DFF82C81DFF82C91049FB2
:100D84003146102F204628BF10274FF0000BFFF7E5
:100D94001BFF5D4545DC059B494620461A78FFF755
:100DA40001FF4FF0010B1BF0070F03D14146204612
:100DB400FFF7F8FE5F453BD9059B4946204613F8EB
:100DC4000B20FFF7EFFE0BF1010BBBF1100FEAD183
:100DD4004FF0000B20463549FFF7E4FE5A46059BC9
:100DE40020469A5CA2F120015F2928BF2E223049B7
:100DF400FFF7D8FE0BF1010BBBF1100F1DD01BF058
:100E0400070F03D141462046FFF7CCFE5F455A4603
:100E1400E5D841462046FFF7C5FEEBE71F48554697
:100E2400A1E741462046FFF7BDFE0BF1010BB0E7F9
:100E340020462049FFF7B6FEC5E7059B3B440593D2
:100E4400049BDB1B04939AD1BAF1000F7FF41FAF0C
:100E5400204609B0BDE8F04F05F00DBA2046054A1A
:100E64000549FFF79FFE15E7297300002D73000065
:100E740018700000247300005273000055730000C2
:100E8400C4050020C0050020367300002C7000004B
:100E9400597300005F730000436200002762000082
:100EA400E11F00006C730000647300006E730000A7
:100EB400707300006A73000000210123064A904207
:100EC40006D8064A01B901231360054B1860704720
:100ED400012140085B00F2E740420F00C0050020FA
:100EE400C4050020F8B50D460446064F4618B44222
:100EF40001D12846F8BD14F8011BBB6801485B68A2
:100F04009847F4E76C6F0000014B036000207047C2
:100F14007470000008B5044805F060F8BDE80840A6
:100F2400024805F05BB800BFAD730000E273000037
:100F3400014804F0A3BB00BF7470000038B5044638
:100F440018B90F4B0F485B6898476168B1F5683F63
:100F540010D0B1F5680F0DD00B4DA9420AD011F491
:100F64006861206807D00146084805F0F6FD0023B3
:100F74002360656038BD142205F023FFF9E700BF44
:100F8400F8000020107400002C5F5CA9EC0A00201B
:100F940008B560B34368B3F5683F0ED0B3F5680F86
:100FA40018D0144A934220D000684FF0FF324FF01B
:100FB400FF3303F051FD58B115E001220368D3E873
:100FC400EF1F002903D1C3E8E02F0028F7D10AD18D
:100FD400002008BD0368084A1B7803F5807352F8A3
:100FE4002330002BF4D00548F3E70548F1E76FF40C
:100FF400E040EEE72C5F5CA900000350E98FFFFF9F
:10100400EA8FFFFF08B520B34368B3F5683F09D002
:10101400B3F5680F13D0114A93421DD0006803F052
:1010240093FD14E000220368D3E8EF1F012903D1E4
:10103400C3E8E02F0028F7D109D0094808BD0021F2
:101044000368084A1B7803F5807342F823100020D4
:10105400F4E76FF4E040F1E70348EFE72C5F5CA9A5
:10106400E98FFFFF00000350EA8FFFFF10B504462D
:1010740018B91D4B1D485B6898476368B3F5683F12
:101084002FD0B3F5680F2CD0194A934219D1236895
:1010940003BB4FF0FF324FF0FF332146154803F0F6
:1010A400ADFC08B923681BB90F4B13485B6898471C
:1010B40014220021206805F084FE4FF46863636005
:1010C40008E0B3F5683F0DD83A2B03D040F6BA6276
:1010D4009342DED1206805F078FD636843F03A035B
:1010E400636010BD054AF3E7F800002010740000A7
:1010F4002C5F5CA9EC0A0020367400003A00003A28
:1011040008B5064940231422054805F018FDBDE83A
:1011140008400449044804F023BB00BFEC05002048
:10112400EC0A00207C7000009070000070B5064648
:101134000D4686B0002938D000248B68012205931F
:101144004B68204604930B6823490393234BCDE952
:1011540000440293234605F0F4F86B6901220593D9
:101164002B6920460493EB681B4903931C4B0094A2
:10117400CDE90143234605F0E4F8EB69012203932A
:10118400184B2046CDE9014313492346009405F04A
:10119400D8F8AB6901220393134B2046CDE90143F0
:1011A4000D492346009405F0CCF8012E0DD1EFF340
:1011B4000583103B03930D4B3246029300230649EB
:1011C4001846CDE9003305F0BCF82946304606B090
:1011D400BDE8704003F074BACC6F00006374000083
:1011E40092740000C1740000D0740000FE7400000A
:1011F40030BFFFF7FDBF00BF2DE9F04105460B4EA0
:10120400DFF82C80324606EB0807CC1B2046094940
:1012140005F0CAFDA01942460021083C05F0D1FDA5
:101224002C6707F10800BDE8F08100BF0000000052
:1012340004000000FC6F0000074A936893F90E1045
:10124400002907DB526993421FBF044A536843F0E5
:1012540080535360704700BFF40C002000ED00E0A1
:10126400F0B50024414B85B00293074623460E4651
:1012740001222046CDE900443D4905F07DF83D4B6F
:101284009B6ADD066FD53C4B2046CDE90143012224
:1012940023463749009405F06FF81120354B9B6ABB
:1012A4001C070AD5354B0122029300233049184606
:1012B400CDE9003305F060F812202E4DAB6A990792
:1012C4001FD500242E4B0122029320462346CDE94C
:1012D4000044274905F050F86B6BAA6A12060FD533
:1012E4000393284B0122CDE901432046234620499C
:1012F400009405F041F81FB1AB6A23F08003AB62A0
:1013040013201C4B9B6ADD070AD51F4B0122029355
:10131400002317491846CDE9003305F02DF81420B1
:10132400144B9B6A9C060AD5184B01220293002396
:101334000F491846CDE9003305F01EF815200D4B72
:101344009A6AD10658BF9A6A9A6A920642BF5A6A42
:1013540022F400525A629A6A42F0FF029A6200230F
:10136400337005B0F0BD102098E700BF1175000080
:10137400CC6F000000ED00E0277500005A750000F6
:101384006D750000857500009B750000BA7500003E
:10139400F0B50024434B85B00293074623460E461E
:1013A40001222046CDE900443F4904F0E5FF3F4BCC
:1013B4009B6ADB0465D53E4B2046CDE901430122FF
:1013C40023463949009404F0D7FF1720374B9B6A12
:1013D4001D050AD5374B01220293002332491846D2
:1013E400CDE9003304F0C8FF1820304DAB6A9C05EA
:1013F4001FD50024304B012220460293CDE900443E
:101404002346294904F0B8FFAB6BAA6A10040FD530
:1014140003932A4B0122CDE9014320462346224966
:10142400009404F0A9FF1FB1AB6A23F40043AB623C
:1014340019201E4B9B6A59050AD5214B01220293A0
:10144400002319491846CDE9003304F095FF1A200A
:10145400164A936A13F4807315D01A4B012202932F
:10146400002311491846CDE9003304F085FF1B2001
:101474000E4A936A43F47F4393620023337005B0AA
:10148400F0BD1620A2E7926A9204F1D50E4A1846DE
:10149400CDE9013204490122009304F06DFF1C20C0
:1014A400E6E700BFE9750000CC6F000000ED00E046
:1014B400FF7500005A7500001076000029760000C0
:1014C4003E76000059760000BA7500001FB500246E
:1014D4003E4B3F490293012223462046CDE9004476
:1014E40004F04AFF3B4B9B6A99016DD53A4B204669
:1014F400CDE90143012223463549009404F03CFF21
:101504001E20344B9B6ADA010AD5344B0122029324
:1015140000232F491846CDE9003304F02DFF1F2086
:101524002C4B9B6ADB020AD52D4B0122029300232C
:1015340027491846CDE9003304F01EFF0220254B4D
:101544009B6A1C030AD5274B0122029300232049DE
:101554001846CDE9003304F00FFF21201D4B9B6A90
:1015640059030AD5204B0122029300231849184637
:10157400CDE9003304F000FF2220164B9B6A9A0346
:101584000AD51A4B01220293002311491846CDE9CA
:10159400003304F0F1FE23200E4B9B6ADB030AD5D3
:1015A400134B01220293002309491846CDE9003365
:1015B40004F0E2FE2420074A936A6FEA03436FEAC9
:1015C4001343936204B010BD1D209AE771760000A6
:1015D400CC6F000000ED00E0897600009C760000EE
:1015E400B6760000E0760000FE7600002377000067
:1015F4003D7700002DE9F041754B04465F6890B0DB
:101604000023C7F3080683F31188BFF36F8F02F03A
:101614007F40B0F17F4F0CD102F00C00082819D1A3
:101624006C4A1846CDE901326B490122009304F05B
:10163400A3FE00252C464FF00008F31E8DF81F80F2
:10164400092B00F2AB80DFE803F00B9FA39CA9A950
:10165400A9A9A9A7120746BF0C461D460125EAE71A
:101664005E4B0122CDE9018300235B491846584FA4
:10167400CDF8008004F080FE8DF81F80FE6A16F01D
:10168400020605D0564BCDE90183CDF8008006E073
:10169400FB6A002B0BDA534B0096CDE90163002360
:1016A400012218464C4904F067FE00223BE0FB6A25
:1016B4005B00FAD54C4B0122CDE901633046334639
:1016C4004549009604F058FE7B69A26943F480738F
:1016D4007B61BFF34F8FBFF36F8F7B6932F8022CAE
:1016E40023F480737B61BFF34F8FBFF36F8F4DF68D
:1016F40002739A420AD0BB6ADBB2002B33D00120BA
:101704000DF11F01FFF7ACFD02460CE02368012236
:101714000393364B3046CDE901632F493346009697
:1017240004F02AFE22689DF81F30CBB908AE04F1FC
:101734002007334620686168083403C3BC421E4650
:10174400F7D10F9B002D3DD0C3F3080121B96FEAF7
:1017540053236FEA43230F93104608A9FFF7E6FCCF
:1017640010B0BDE8F081BB6A13F47F4F05D00120AF
:101774000DF11F01FFF70CFEC6E7BB6AB3F5803F0E
:1017840093D3FFF7A3FEBFE700200DF11F01B9E7D4
:1017940000200DF11F01EDE7154B74E7154A17F40E
:1017A400F87F154B18BF1346103ECDE90336134B93
:1017B40001220293002308491846CDE9003304F0BE
:1017C400DBFD72E723F4FF7323F00103C3E700BFDB
:1017D40000ED00E096770000CC6F0000C1770000B8
:1017E400D8770000F9770000077800002678000019
:1017F400427800007D77000068770000667800007A
:10180400044B5A6942F010025A615A6942F48062E8
:101814005A61704700ED00E0EFF30880EFF30981AF
:1018240001B57246FFF7E6FE01BD00BF002080F35C
:101834001488BFF36F8F002080F30A8880F30B882D
:1018440001F01AFF00200E490860BFF34F8F0D48C6
:1018540080F3088800F02CF8202080F311880A48CF
:101864004FF40061401880F30988EFF314800221DB
:10187400084380F31488BFF36F8F00F001F9000070
:1018840094ED00E0485A0020084100200023184647
:101894000649D1F89020C2F30722934200DB704737
:1018A400C1F89830C1F8A0000133F6E700ED00E07C
:1018B40010B572B6002484F31388FFF7E7FF2346BC
:1018C4004FF0FF300C4A03F120010133102B42F892
:1018D4002100F8D100234FF0FF30074A03F16001E3
:1018E4000133102B42F82100F8D162B6BFF34F8FB9
:1018F400BFF36F8F10BD00BF00E100E0084B9B6891
:1019040083420BD1EFF3058343B1064B5A6842F08F
:1019140080525A605A6A22F400425A6205F009BAA7
:10192400F40C002000ED00E06FF00A01084A93680F
:101934009967084958674B6843F080534B6000230C
:1019440083F31188BFF36F8F9368986F704700BF5C
:10195400F40C002000ED00E0EFF31183202383F367
:101964001288BFF36F8F4FF00061084A5369936088
:10197400074A5160196F074A116000215A6F59676D
:1019840082F31188BFF36F8F704700BFF40C0020FF
:1019940000ED00E0080B00200E498A684FF030008B
:1019A4001044EFF3098C80E8F01F74467046FFF78B
:1019B400D3FFA64607498A6802F1300090E8F01F79
:1019C4008CF3098802F1000004B504F0EDFCBDE8D5
:1019D40004407047F40C00201EF0040F0CBFEFF31A
:1019E4000880EFF30980816911F8021C0229FFD0F5
:1019F40001B504F0B6FC01BD0028ACBF00F16040A5
:101A0400064B4FEA4111C9B2ABBF00F5614000F08B
:101A14000F0080F800131954704700BF14ED00E064
:101A240040B2002807DB01234109034A00F01F00EC
:101A3400834042F82130704700E100E040B20028C2
:101A44000CDB01220649430900F01F0082402033C9
:101A540041F82320BFF34F8FBFF36F8F704700BF50
:101A640000E100E0054B420953F82220012300F075
:101A74001F0003FA00F01040704700BF00E100E0CF
:101A84000B4A08B50B4B22F07F029A60BFF34F8FCD
:101A9400BFF36F8FD3F8882022F47002C3F8882034
:101AA40002F0EAFE03F040FC00F04AF802F024FFE2
:101AB4000000000000ED00E042F8203C009B0B49D0
:101AC40042F81C3C019B21F0010142F8183C029BA6
:101AD40042F8081C42F8143C4FF0807342F8043C6E
:101AE4000023203A02654367704700BFB106000037
:101AF4000C4B15469860026F0B4B0E461A60036E32
:101B040083F30B882C4686F309884FF00000074BBB
:101B1400984720464FF000014FF000024FF00003B9
:101B2400034C2047F40C0020080B0020B563000090
:101B3400B10600001022014B1A61704700ED00E06D
:101B4400002320210348C2180133452B82F80013D7
:101B5400F9D1704700E100E008B5EFF30583064AC8
:101B6400103B02EBC30152F8330049688847BDE8D3
:101B74000840FFF761BB00BF580100201FB5094CA6
:101B8400094A23460121094800F020F90023039360
:101B9400074B0121E41A01A80193029400F020F9F3
:101BA40004B010BD0000072000000020A070000059
:101BB400E003002010B50C7A0B6804F01F0223F038
:101BC4001F031A43CB68640923F01F03054943EA42
:101BD400440343F00103C1F89800C1F89C20C1F804
:101BE400A03010BD00ED00E01FB50E4B0446D3F845
:101BF4009030C3F30723013B98420FD90A4B03905B
:101C04000293002301221846CDE90033074904F06A
:101C140014FC6FF01504204604B010BDFFF7CAFF92
:101C2400F9E700BF00ED00E07D780000C46F00001C
:101C34002DE9F04F8946144606464FF00008544DEE
:101C440089B0C8452DDAD6F804A0BAF1000F4AD0FD
:101C5400BAF11F0F17D91AF01F0F14D1D6F800B01C
:101C64001BF01F0F0FD1584604F0DEFB07460AEBAA
:101C74000B00013804F0D8FB874216D06FF015072B
:101C8400444B039702E0444BCDF80C8002930023AD
:101C940001221846CDE90033404904F0CEFB6FF031
:101CA4001504204609B0BDE8F08F17F1160FE7D0F0
:101CB400BC42E5DDC5F89870D5F89C10C5F898705D
:101CC400D5F8A03021F01F0143F01F0BD6E90032F4
:101CD4001A44994202F1FF3A1DD1D34507D1314646
:101CE400F8B204F0BAFB08F101080C36A9E7314652
:101CF400C5F89870D5F89C3022F01F0203F01F033A
:101D04001343C5F89C30E0B204F0A7FB10F1160FA2
:101D1400C5D0441CE7E7C5F89870D5F8A020013B6E
:101D240023F01F0302F01F021343D3453146E0B2F0
:101D3400C5F8A030E8D004F090FB10F1160FAED037
:101D4400C5F89870D5F89C209DF818300BF1FF3B2E
:101D540062F304038DF81830D5F8A0309DF81820EC
:101D64005B0863F347128DF81820D6E90032134458
:101D7400049323F01F035B44A3EB0A03013023F015
:101D84001F0304A9C0B20793FFF72EFFBEE700BFED
:101D940000ED00E0C6780000A3780000C46F0000E6
:101DA4000522044BC3F89420BFF34F8FBFF36F8F0A
:101DB400704700BF00ED00E0BFF35F8F0022024BCD
:101DC400C3F89420704700BF00ED00E010B5034C49
:101DD4002278FFF72DFF207010BD00BF00410020C6
:101DE4002DE9F74F294D8A4606464FF00008AB46C9
:101DF400274FD0451BDAD6F80490B9F1000F3FD035
:101E040031680846019104F00FFB0199044609EB7F
:101E14000100013804F008FB84424FF014021D4B0A
:101E240008D002FB08F36FF015024BF8032003B04F
:101E3400BDE8F08F14F1160F2C60F8D01978A14288
:101E4400F5DD02FB08B0C7F89840C7F89840D7F80A
:101E54009C4000F10801007B64F304000871D7F88A
:101E6400A0000C79400860F347140C71D7F89C105B
:101E740021F01F016960D7F8A01021F01F0129612A
:101E840008F1010814350C36B3E700BF0C0B002031
:101E940000ED00E000410020F0B54149414CD1F88B
:101EA40090302568C3F307239D4287B075D800207E
:101EB400FFF782FF3C4BC1F8C030854216D13B4C42
:101EC40001A82570FFF720F800250646384FAE42DA
:101ED40013D1002023783249D1F89020C2F307228D
:101EE400934254DBFFF75CFF00202FE0616801EBB5
:101EF4000011FFF75FFE0130DFE70199280101EBD4
:101F04000513DA683A40B2F5001F21D0B2F5800F0C
:101F14002BD0B2F5801F38D15A689B680958013B11
:101F240022F01F0003440120844623F01F0340EAEB
:101F34004C10CDE902218DF8100002A920780593F8
:101F4400FFF752FE00281DDA6FF0150007B0F0BD50
:101F54005A689B680958013B22F01F0003444FF064
:101F6400020C012023F01F03E1E75A689B6809581B
:101F7400013B22F01F0003444FF0000C062023F025
:101F84001F03D4E723780133237001359FE7C1F899
:101F94009830C1F8A00001339EE74FF0FF30D5E739
:101FA40000ED00E0AC700000AAFF440000410020F6
:101FB4000000F0FF08B5024B1B689847002008BDDD
:101FC400200B0020034B044A1860937843F002036B
:101FD40093707047200B002030000020F0B587B0CC
:101FE40007460E4614460021102268461D4604F09A
:101FF400E8FE02238DF80230054B2A462146684646
:10200400CDE90476019303F07BFC07B0F0BD00BF7B
:102014009164000008B50649064821F00701C1F1A2
:10202400005202F5E02203F04EFF002008BD00BF7D
:102034004F5A0020240B002007B50DF1070004F0CF
:10204400EFFB114B98421CD14FF480620F4B1049A7
:10205400C3F8B8254FF40062C3F83C259DF8070087
:1020640004F0CAFB0B499DF8070004F0C0FB0120F3
:102074009DF80730984001F01DFC002003B05DF886
:1020840004FB6FF00B00F9E70000AD0B00A0025059
:102094002CA0025028A10250054B03EB8000D0F87D
:1020A400003223F0E04343F04053C0F8003270475D
:1020B40000258450012208B50A4B0B49C3F80025BA
:1020C40002230020C1F8D036FFF7E6FF1046FFF7E1
:1020D400E3FFC1F80427C1F80429C1F8002B00204C
:1020E40008BD00BF0010005000400050052370B52B
:1020F400144D154E2C780134B4FBF3F303EB830336
:10210400E41A04F062FB114A137823B156F8243020
:10211400C01A072814D94FF05023D3F8141141B131
:102124000021C3F81411D3F814312C700CB9012315
:1021340013702C7804F049FB46F82400012070BD8C
:102144000020FCE702410020300B00200141002068
:1021540048B1054B054A1B68B3FBF2F35843044BE3
:1021640043F00103184770476400002040420F0009
:10217400007000000149024803F08CBFD4700000D5
:10218400440B00204FF47F032DE9F041D3F83021B4
:102194000646072A0D46D3F8343120D1023B032BDF
:1021A40002D8124AD35CD3B14FF050244FF0010847
:1021B40000270520C4F81886C4F8147604F015FB2B
:1021C4004046C4F8148604F010FBC4F81476C4F82E
:1021D400187630462B46BDE8F041002118474FF0F1
:1021E40050230022C3F81426F3E700BFFC78000054
:1021F4007FB50BAB05930393054B01220293002398
:102204001846CDE90033FEF77BFC07B05DF804FB0C
:102214000079000070B5049CC4F30726304601F031
:102224001FF8E5B20146284604F0F2FA0022012024
:10223400074BA40B04F0FC041A51A84001F040FB26
:10224400304601F0C1F92846BDE8704001F02CBCCD
:1022540080A0025070B586B005A801F01FFC294B80
:1022640098424CD101F092F9041E0FDA9DF8140043
:1022740001F01AFC244B012202930023234918463F
:10228400CDE900330394FFF7B3FF35E040F60703CD
:102294001F4D8DF81540AE68ADF816307468059B77
:1022A40014B96FF05704E5E708212846194AA047F6
:1022B400041EDFDB3369002BF3D0012208212846FA
:1022C4009847041ED6DB01209DF81430984001F095
:1022D400F1FA9DF815009DF814509DF8176004F06C
:1022E4005EFA0146284604F087FA0B4BB60045F027
:1022F40000459D51002CBDD1204606B070BD6FF045
:102304001204B7E70000AD0B00790000DC6F000099
:10231400806F00002123000080A102502DE9F341C9
:10232400144683681B690BB100229847C4F307263F
:10233400304600F09DFF0546304604F030FA4FF079
:102344000008E7B20146384604F066FA104B220E44
:10235400920043F80280304600F082FF0D4A4FEAB3
:10236400943C0CF0FC0C47F0004342F80C3001465E
:10237400384604F03CFA084B05F13202009330462B
:1023840043460194520004F014FA02B0BDE8F0810F
:1023940080A1025080A0025019220000084B70B5A1
:1023A400C31A0D4607499B10044659434022064868
:1023B40004F088F82B4601462046BDE870401847D3
:1023C400740B0020B76DDBB6306F0000402373B58B
:1023D4000B4C0093041B0B460D460A49A4106143A1
:1023E4000646094A094804F098F8011E05DA304601
:1023F4002B4602B0BDE87040184702B070BD00BF64
:10240400740B0020B76DDBB687650000306F0000E9
:1024140010B5EFF31184202383F31288BFF36F8F79
:10242400074A136823F00201DB07116002D401207C
:1024340004F0A9FA84F31188BFF36F8F10BD00BFB5
:10244400140C00202DE9F843002201210646052042
:1024540003F0A2FF114801F039FA114B984219D147
:1024640001F044FA00244FF01C090C27DFF83480F3
:102474003569414609FB045003F00CFE002807DBD4
:10248400012307FB04551C44042CAB67F0D1002046
:10249400BDE8F8836FF00400FAE700BFA52500004B
:1024A4000000AD0BE07000001FB500220123CDE950
:1024B40002236B46084ACDF800D0CDF804D004F0CE
:1024C40059F8002805DB4FF480420023684602F0E7
:1024D4009BFB05B05DF804FBBD6500000C22104BAE
:1024E400014602FB0033002030B4D3E91C521867C4
:1024F400EFF31180202484F31288BFF36F8F9C6F55
:1025040004F0C00444F002049C6780F31188BFF314
:102514006F8F1DB12B4630BC0248184730BC704742
:10252400740B0020306F000010B4EFF311822023ED
:1025340083F31288BFF36F8F1748016841F00204D8
:102544000460C80707D482F31188BFF36F8F01209A
:1025540010BC01F0E3B94FF05021D1F80C04D1F8CC
:102564000C14C907EFD5EFF3118083F31288BFF37E
:102574006F8F0A498B6F03F0C00343F002038B672C
:1025840080F31188BFF36F8F82F31188BFF36F8FCD
:10259400002010BCFFF7A2BF140C0020740B002015
:1025A400062812D8DFE800F0040F1111110D0B00FA
:1025B400064B986F10F0070007D1FFF78FBF02207A
:1025C400FBE70320F9E70120F7E77047740B0020CD
:1025D4002DE9F041012207463649D1E8EF3FC1E831
:1025E400E02F0028F9D133B9334934484B60CB602C
:1025F4008A6003F062FD7B1E012B2BD8012F07D1CB
:102604004FF05023D3F81C3403F00303022B21D0E2
:1026140004F0E2FA0546F8B9294B1B78E3B14FF010
:10262400502302220646C3F808234FF05024DFF853
:102634009480D4F81824D4F81834D20315D503F0B0
:102644000303022B01D0012F0FD16DB386F3118840
:10265400BFF36F8FBDE8F081EFF31186202383F37E
:102664001288BFF36F8F0125DFE7C5B1304603F051
:10267400BFFED4F81835DBB2012BDAD1D4F804212B
:10268400002AD6D00022C4F80421D4F8042102225E
:10269400C4F818252022C8F88021A360C9E70021C6
:1026A400212002F097FDE4E74FF050230222C3F803
:1026B4000423CFE7700B0020600B0020900B002058
:1026C4000541002000E100E008B5074804F0E2F904
:1026D40038B10648FFF776FC0448FDF7E1FF002017
:1026E40008BD6FF01200FBE76C6F0000F5260000D8
:1026F4000A2838B50446074D04D1AB680D21284695
:102704005B689847AB6803485B68E1B2984720462A
:1027140038BD00BF6C6F0000F0B5406801F01F04C5
:10272400057B87B044EA45140569002D63D0B2F5F2
:10273400001F00F1100506D12146284604F0A3F934
:10274400002007B0F0BD0027B2F5800F01AE01975D
:10275400776039D1B3F1007F14BF052304238DF8CA
:1027640004300023CDE904630393836823FA01F161
:1027740011F001011AD1B2F1A07F17D104F01F03A7
:10278400620903F180032AD0012A3AD11E4A52F881
:102794002330DB070AD40DF10306324621462846CE
:1027A40001F0EEFB194B98421BD0029621462846B5
:1027B40003AA01F0A1FA164B98421FD10122214627
:1027C400284601F03FFCBBE7B3F1C06F05D0B3F17D
:1027D400007F14BF01230223C1E70323BFE70D4A8F
:1027E400D5E73146284601F027FC094B9842DCD056
:1027F4006FF00B00A5E76FF08500A2E76FF01500FE
:102804009FE751F82330FFDE002884500400AD0B0D
:102814000000AD0B0025845038B545682B69B3B171
:102824001035284601F0F8FB044680B901462846D5
:1028340001F0C0FB084B98420BD1224628460749B9
:1028440001F098FB224605210D2003F0A5FD002090
:1028540038BD6FF00400FBE70000AD0B65280000F5
:102864004209034670B502D0012A17D070BD0D4E3F
:10287400326951680029F9D0012503F01F030C685F
:102884009D400029F2D08A682A4002D030464B6825
:1028940098472CB1236821461C46F2E7024EE7E72D
:1028A4002346F8E7586F0000446F00002DE9F04319
:1028B40040F206354668D00648BF0320337B02EA5F
:1028C400050558BFC2F3401087B001F01F07B5F5E6
:1028D400837F144647EA43178DF8030043D00FD88B
:1028E400062D18D007D8B5B1022D3ED06FF01500D3
:1028F40007B0BDE8F083B5F5807FF7D101250AE084
:1029040040F20222954232D0B5F5407F31D0B5F580
:10291400007FEBD1022522032DD5012372688B4061
:102924009360326982BB07F01F037F092AD0012F0D
:1029340077D13E4A02EB830284F48033D2F800124A
:10294400C3F30043C4F3404444EA430421F47061F4
:1029540044EA800421F00F0144EA05230B43C2F842
:1029640000320020C4E70725D5E70425D3E7052571
:10297400D1E70325CFE7630341BF012372688B408E
:10298400D360CEE72A4AD5E71036394630460DF1F2
:10299400020201F0F5FA14F4403F80460CD13946A6
:1029A400304604F06EF8234B9845DAD130469DF852
:1029B400021001F03BFBD4E74FF0000901AB3946AC
:1029C400304603AACDE90439CDE90199CDF80C903C
:1029D40001F092F9174B984288D114F4003315D0C2
:1029E4009DF8033084F48034C4F300448DF80E3031
:1029F40039464B46304603AA8DF80C508DF80D40ED
:102A040001F036FA0B4B9842CDD06FE7CDE9043391
:102A140039460DF10303304603AA039301F06CF920
:102A2400F0E7803352F82330FFDE00BF00288450E3
:102A3400002584500000AD0B10B504460269A6B011
:102A4400C2F880002449002001F02EFC002201215C
:102A54002A2003F0A1FC64688422002105A804F064
:102A6400B0F96368B3F5803F09D31C4B022202938B
:102A740000231B491846CDE9003303F0FFFD23680A
:102A8400B3F5803F09D3174B022202930023144964
:102A94001846CDE9003303F0F1FD0023012025930E
:102AA40005AA61680432D940C90744BF00FA03F19A
:102AB40042F8041C2168D940C90748BF00FA03F151
:102AC40003F1010348BFD163102BEAD105A801F03B
:102AD40003FC002026B010BD3D2B000083790000CC
:102AE400BC6F0000AF79000030B505460C4685B0D8
:102AF4004AB10F4B0222029300230E491846CDE936
:102B0400003303F0BBFD0F2C0FD86B685B68E34008
:102B1400DB070AD501230020A400E4B204F1A04499
:102B240004F52834236005B030BD6FF01500FAE7D2
:102B3400DB790000BC6F00007FB5D1F880600F28FE
:102B440004460D46736803D81B68C340DB0709D4E9
:102B5400144B02220293002313491846CDE9003393
:102B640003F08CFDD5F88430E34013F0010308D161
:102B74000E4A1846CDE901320B490222009303F0B4
:102B84007DFD05EB840255F8245045B10023214610
:102B94003046AC46126C04B0BDE87040604704B0E7
:102BA40070BD00BFF6790000BC6F0000127A00000F
:102BB40030B50F290C46056985B041D843681B68B8
:102BC400CB40DB073CD5D5F88430CB4003F0010380
:102BD4001AB90BBB6FF0770030E0002BFAD155F82F
:102BE400213043B9184A1846CDE901321749022267
:102BF400009303F043FDD5F8843013B92A20FEF77F
:102C04000FFF0122D5F88430A2401343C5F8843065
:102C1400E0B201F081FB0AE0C8B201F085FB0122B9
:102C2400D5F88430A24023EA0203C5F88430D5F8ED
:102C3400843013B92A20FEF701FF002005B030BD0F
:102C44006FF01500FAE700BF2F7A0000BC6F000098
:102C5400036803F01F025B09026004D0012B0348E0
:102C640018BF002070470248704700BF00288450F6
:102C7400002584502DE9F04F1546834640F2FF1895
:102C8400DFF88891DFF888A185B000EB8101594510
:102C940003D1002005B0BDE8F08FDBF80030C3F3AA
:102CA400C322082AC3F3080400F2AA805B0C44453B
:102CB40008BF4FF0FF3419F80270222B00F2A380F2
:102CC400DFE803F012191F22252B22A1A1A1A13AAA
:102CD40067A1A1A1A1A1A1A1A1A16A7F8285A1A1AE
:102CE400A1888F9295989B00C5F80C45601C5DD116
:102CF4000BF1040BCBE7C5F81445621CF8D0002691
:102D04005DE0C5F80845F1E7C5F81045F5E7631C33
:102D1400C5F80845ECD0002604E0661CC5F80C454F
:102D2400E6D0012603A80394FFF792FF0122039B38
:102D340002FA03F3C36008E0C5F80845002FDCD1AC
:102D4400631CD5D0002606273246DBF800300394F6
:102D540003F40040002818BF002203A818BF01266E
:102D640001930092FFF774FF039C019B00EB840026
:102D7400D0F80042C3F3412C009A3B0243EA8C038F
:102D8400134304EA0A04234343EA4603C0F8003227
:102D9400AEE7C5F80C45D1E7C5F86045601CDBF823
:102DA4000030A5D0C3F30043002BBAD0012603A8FA
:102DB4000394FFF74DFF039B06FA03F38360324647
:102DC400C3E7C5F86445E9E7C5F86845E6E7C5F82B
:102DD4006C45E3E7C5F82445621C89D0012600222E
:102DE400B3E7C5F8284581E7C5F83045F4E7C5F8E9
:102DF4003445F1E7C5F83845EEE7C5F83C4575E7D5
:102E04006FF0150046E76FF0850043E7787A00001D
:102E1400F0F0FCFF7FB50BAB05930393054B012248
:102E2400029300231846CDE90033FDF769FE07B08D
:102E34005DF804FB817A00002DE9F04306464FF06B
:102E4400000887B000220121082003F0A5FA082019
:102E5400FEF7E6FD776835693C684146C4F80085AD
:102E64002E60D7F80C9005AA484603F017FC0028FA
:102E74003FDB059BD9F8002019791868FFF7FAFEA3
:102E8400002836DB6B7AD6F810C0012B03D0032B55
:102E94002DD14FF01008AB7A032B28D195F80BE015
:102EA400BEF1000F02D0BEF1010F20D1297A012911
:102EB40022D0022924D0D1B90A466B687068B3F5D0
:102EC400164F006800F08E8037D8B3F5165F00F017
:102ED4008C801FD8B3F5966F00F0898012D8B3F5B3
:102EE400967F00F08780B3F5167F00F086806FF040
:102EF400850007B0BDE8F0834FF480720E21DCE753
:102F04000022FBE7B3F5166F7AD0B3F5965FEED1E6
:102F1400604B3EE0B3F5E14F75D007D8B3F5615F80
:102F240073D0B3F5964FE2D15B4B32E047F61229EA
:102F34004B45DCD14FF400032BE0B3F5613F66D081
:102F440013D8B3F5963F65D009D84DF6C0294B4543
:102F540062D0B3F5614FCAD14FF46B0319E0B3F5F6
:102F6400E13FC4D14FF0EB7313E0B3F5612F56D0BA
:102F740009D8DFF828914B4554D0B3F5E12FB6D1E9
:102F84004FF0E86305E0DFF818914B45AFD14FF0FF
:102F94008053C0F82435736848EA01081B6842EA84
:102FA4000E0242EA0802C3F86C250CF10403D5E9C9
:102FB400010183E803007B68990742D505F11800F5
:102FC40000F06CFD374B98422FD0374B012202930F
:102FD400002336491846CDE90033FFF71BFF6FF095
:102FE400040086E74FF41D03D3E7314BD1E74FF4D8
:102FF4009E23CEE74FF4A033CBE74FF41C33C8E74E
:103004004FF41D23C5E72B4BC3E72B4BC1E74FF010
:103014006C73BEE7294BBCE74FF46503B9E74FF087
:103024007063B6E74FF08063B3E7287E04F10C02C7
:1030340004F5907103F0E5FB01202B7E984000F02D
:1030440039FC0823C4F800353B7A53B9C4F810316D
:10305400D4F810316B69C4F834350123C4F8383519
:1030640023607B6800209A075CBF4FF48073C4F828
:1030740004337B68DB0644BF4FF48003C4F8043395
:103084002B69C4F844350123C4F84805A360E36000
:103094002FE700BF00B0130000A04E0090D0030043
:1030A40040420F000000AD0B817A0000E46F000085
:1030B4000050270000C0750000F03A0000903A016B
:1030C4002DE9F04104460D46076903F085FD4FF0F4
:1030D4002008B0B92C4B1B789BB16426606803F0C0
:1030E4000BFBF0B9012003F080FB013EF6D1002177
:1030F400212002F06FF8F0E786F31188BFF36F8F99
:10310400F5E7EFF31186314688F31288BFF36F8F2A
:10311400606803F0F1FA80B986F31188BFF36F8F0A
:10312400EFE7EFF31186314688F31288BFF36F8F10
:10313400606803F0E1FA0028DED03B691D70626824
:1031440038691368C3F844050120C3F84805002012
:10315400C3F82001D3F82051C3F858015268D3F8BA
:103164005801D20608D5082062681268C2F8000522
:103174004FF48002C3F8042301229A6081F311887A
:10318400BFF36F8FBDE8F081054100200123834028
:1031940070B5DC430B4AD2E8EF1F01EA0405C2E82C
:1031A400E65F002EF7D14FF4803282400648C0F823
:1031B4000823BFF35F8FBFF36F8F0B4214BF01204F
:1031C400002070BDC00C00200050015070B40E49A6
:1031D40022F07F46D1E90034D01AC31844F1000428
:1031E400C1E90034A6F50013B3F5400F09D2074B2B
:1031F4001B681A0A1B069C19054B42F10005C3E91A
:10320400004570BC02F06AB900040020C40C002020
:1032140008040020D9B101230D4A8340D2E8EFCF3E
:103224004CEA030CC2E8E1CF0029F7D14FF4803314
:10323400084A8340C2F80433074BD3E8AF3FC34086
:10324400DB0742BF4FF40012044BC3F80021704760
:10325400C00C002000500150B80C002000E100E038
:10326400C3B202489B001844704700BF405101504C
:10327400024B00F5A87053F820007047005001502D
:103284000D4B1868010A0006BFF35F8F0B4BD3F890
:103294000435181841F10001B3F5801F0AD2084B18
:1032A400D3E90023904271EB030303D210F1807041
:1032B40041F10001704700BFC40C002000500150D0
:1032C400080400202DE9F04F85B016461F46044639
:1032D4009DF840A0FFF75AFF0190FFF7D1FFB042DD
:1032E40071EB070352D23B4B301A67EB0101984252
:1032F40071F100014DD2384B03EB0413D3E90223DF
:103304009F4208BF964258D04FF48038334908FA98
:1033140004F8204626F07F4BC1F8488303F033FAC3
:103324004FF00309584604F15005AD00ADB205F164
:10333400502504F5A87305F580350293029A20F010
:103344007F4341F82230C1F84483D1F80435244A3C
:10335400C01A033820F07F4090422ED9286868B103
:10336400D1F80435A3EB0B0020F07F40B0F5000F3B
:10337400039322D9204603F006FA039BBAF1000F07
:1033840007D109EB030009F10109D7E7BAF1000FEE
:1033940009D06FF0150520460199FFF73BFF284639
:1033A40005B0BDE8F08F01230E4AA340D2E8EF0F29
:1033B4001843C2E8E10F0029F8D107490E98230108
:1033C400C8500F9B01EB04120025C2E90267536049
:1033D400E1E700BF01008000E0030020005001503D
:1033E400FDFF7F00B80C00207FB500254FF0FF30B3
:1033F4004FF0FF314FF480321C4C1D4B0226C4F8B1
:103404000833C4F848331B4BC4F80855C3E9020118
:10341400C4F80423C3E906014FF400334FF4001247
:10342400C4F80433144B0121C4F804631520C3F811
:1034340080212A4602F0B0FF1520FEF7F1FA01239D
:103444000322A36023600D4B28461A600C4B0D4ADF
:103454001E600D4BCDE9015500930023FFF732FFA9
:103464003046FFF7B5F8284604B070BD005001504F
:1034740003000F00E003002000E100E0C00C002086
:10348400BC0C0020FFFF7F00D13100002DE9F04F7C
:10349400394B85B0D3F8042392070BD5D3F8042114
:1034A40042B10022C3F80421344AD3F8043113682A
:1034B40001331360324D0024A8464FF480362E4F5A
:1034C400D7F8043306FA04F919EA030F2ED00123BE
:1034D400A340DB432B49D1E8EF2F02EA0300C1E804
:1034E400EC0FBCF1000FF6D122FA04F3DB0703D48E
:1034F400254B53F82430CBB1204603F044F9FFF7B1
:10350400BFFEEFF311832022029382F31288BFF3EC
:103514006F8F08EB041CDCE902AB504571EB0B0127
:103524000BD2029B83F31188BFF36F8F103514B154
:1035340005B0BDE8F08F0124C2E70020D5E90013EF
:103544004FF0FF3203934FF0FF3328600A48CCE971
:103554000223C0F84893204603F015F9029B83F335
:103564001188BFF36F8F0029E0D0039B524600936C
:103574005B468847DAE700BF00500150C40C0020C6
:10358400E0030020B80C00204051015070B5012424
:103594000C4B186890B1B0FA80F0C0F11F0004FA27
:1035A40000F1C943D3E8EF2F02EA0105C3E8E65F5F
:1035B400002EF7D1C240D207EBD570BD6FF00B00DF
:1035C400FBE700BFBC0C00200123054A8340D2E87E
:1035D400EF0F1843C2E8E10F0029F8D1704700BF8C
:1035E400BC0C002030B5431C124C85B005D084427D
:1035F400A8BF0446012CB8BF0124FFF741FE0E4BBF
:103604000C4DD3E90013401AB0F5000F0FD2221865
:10361400AA4228BF2A46002052180849CDE90100D1
:10362400009143F10003FFF74DFE05B030BD2A467B
:10363400F1E700BFFFFF7F0000040020D13100004C
:1036440008B5FFF71DFE024B1B68C01A08BD00BF7A
:10365400000400204FF47F03D3F83021D3F8343131
:10366400072A05D1023B032B02D8024AD05C7047DB
:1036740000207047C27A000008B5FFF7EBFF58B18D
:10368400644BD3F8202A3AB90D21C3F8201A01213A
:10369400C3F81C19C3F81C290022D30003F57F03C7
:1036A400D3F80013013107D0D3F800130132D3F853
:1036B4000433202A0B60F0D1FFF7CCFF002840F040
:1036C400A080FFF7C7FF40B1534B544AC3F83025DD
:1036D4004FF050230122C3F858254FF47F03D3F849
:1036E4003021D3F83431072A09D1023B032B06D801
:1036F4004B4AD35C1BB100224A4BC3F84C25FFF75D
:10370400A9FF50B14FF05023D3F80024D10742BF92
:103714000022C3F81421C3F818214FF47F03D3F80F
:103724003021D3F83431072A09D14FF05023D3F88C
:103734000024D20744BF6FF00102C3F80024FFF74E
:1037440089FF18B16522334BC3F80C274FF47F036C
:10375400D3F83021D3F83431072A16D1314BD3F8BA
:103764002034002B11DA4FF050230322C3F818251C
:1037740001229A60D3F80421002AFBD00022C3F866
:1037840004210122DA60C3F818254FF47F03D3F82B
:103794003021D3F83431072A23D1023B032B02D83A
:1037A400214AD35CEBB17E221A4B1B49C3F80C2788
:1037B400C3F83C297F231D4AC2F818310023C1F8FD
:1037C400043EC1F8083E01F54821C1F81031C2F8A1
:1037D4002431C2F82C3102F5FF1202F58052C2F8EE
:1037E400A032134AD2F88C3043F44063C2F88C30D0
:1037F400104A114B1168C3F84415D269C3F84C251B
:1038040008BD2922034BC3F80C270322C3F83C2725
:1038140057E700BF00400050009003504400EFBE43
:10382400BE7A000000200350BA7A00000020005045
:1038340000ED00E00080FF000060005030B5046837
:10384400ACB1B4FA84F30122C3F11F03DBB29A4092
:1038540024EA0202D0E8EF5FA54204D1C0E8EC2FCD
:10386400BCF1000FF6D1EAD102480B7030BD02481A
:10387400FCE700BF0000AD0B0200AD0B10B5036800
:10388400CB40DB0710D401238B40026843EA0201DA
:10389400D0E8EF4F944204D1C0E8EC1FBCF1000F14
:1038A400F6D1F2D1014810BD0148FCE70000AD0B90
:1038B4000400AD0B014BC3F80405704700700150C0
:1038C400014BC3F80805704700700150044B1A7986
:1038D40022B9012218601A710248704702487047E1
:1038E400C80C00200000AD0B0C00AD0B08B50A4B52
:1038F4001B6833B10520FEF7B5F810B90520FEF7B3
:103904008FF84FF050230122C3F81825C3F814256B
:10391400C3F8802508BD00BFC80C002010B50328DB
:1039240045D8DFE800F01802554F00224FF48073A9
:103934000121002003F1502318601C68012402F1C6
:1039440050221460284A1268002A47D04FF05023AE
:10395400C3F804132BE04FF05023D3F81814D3F812
:103964001824C90312D502F00303022B05D0012B3E
:1039740002D0002002F056FF01234FF05022022112
:10398400C2F8183508224FF48273D2E7D3F814240E
:10399400D207F1D5D3F81C2402F00302013A012A1C
:1039A400E7D8114A12681AB10222C3F8042310BDE1
:1039B400D3F80421002AFBD00022C3F80421D3F851
:1039C4000431F4E718224FF490734FF48071B0E798
:1039D40020224FF492734FF40071AAE71A68002A68
:1039E400FCD018601B68E2E7C80C00204FF050239D
:1039F40010B5D3F8002152B10020C3F80001D3F868
:103A040000210122C3F80823234B1B6898474FF079
:103A14005023D3F8042182B10022C3F80421D3F83F
:103A24000421D3F81824D3F81824022102F0030245
:103A3400012A28D1C3F818159A604FF05023D3F8FF
:103A4400202162B10022C3F82021D3F820214FF4B1
:103A54008072C3F80823104B05201B6898474FF069
:103A64005023D3F82421AAB10022C3F82421D3F887
:103A740024214FF40072C3F80823074B0620BDE845
:103A840010401B681847C3F80813034B01201B6838
:103A94009847D2E710BD00BFC80C0020014601487A
:103AA400FFF7CCBE680000200123044A834001468E
:103AB400C2F808350248FFF7E1BE00BF00700150AC
:103AC40068000020036803F01F025B09026004D051
:103AD400012B034818BF002070470248704700BFFD
:103AE4000028845000258450034A4309D35C00F025
:103AF4001F001844C0B27047C67A000070B505466E
:103B0400FFF7F2FF0C4C083034F810300E46DA059B
:103B140008D5C3F3432304EBC302284654F83330D7
:103B240052689847A3682BB131462846E268BDE83D
:103B34007040184770BD00BF6C00002008B5FFF747
:103B4400D3FF034B083033F81000400B08BD00BF0F
:103B54006C00002008B5FFF7C7FF034B083033F8AB
:103B64001000C0F3400008BD6C00002008B5FFF74A
:103B7400BBFF034B083033F81000C0F3401008BDFE
:103B84006C000020034611F0010010B5CCB20BD13B
:103B9400A207C4F340000DD5074A106A58601062AA
:103BA400003818BF012005E004490A6A1A600A6255
:103BB400002AEDD010BD00BF002884500025845099
:103BC40010B5FFF791FF124A083032F81030D905CA
:103BD4001CD5C3F3432123F4F85322F810300020FA
:103BE40002F10E0434F8023F13F4807F03D0C3F3D0
:103BF400432399420AD001303028F3D1002342F8FC
:103C040031300448BDE81040FFF738BE10BD00BF96
:103C14006C000020E4000020F0B5054600200126D9
:103C2400044607468C420BD1114BD3F87C2132B1A8
:103C34000022C3F87C21D3F87C3140F00040F0BD71
:103C4400E3B29B0003F580729B0806FA03F31D425E
:103C54000BD002F1A04202F55042D2F800C0BCF1F0
:103C6400000F02D01760126818430134DAE700BF6E
:103C740000D00050F7B506460846FFF735FF1A4F47
:103C840000F1080537F815300C46DB072AD5304615
:103C940002F0D3FE2046FFF769FF58B12046FFF734
:103CA4004DFF0022316800B201EB8003C3F81025F8
:103CB400C3F810252046FFF783FF002301A827F847
:103CC40015300194FFF7FEFE019B00EB8300D0F852
:103CD4000022064B134043F00203C0F800320448AC
:103CE40003B0F0BD0348FBE76C000020F0F0FCFFDC
:103CF4000000AD0B0400AD0B2DE9F04316468046E1
:103D040085B00846FFF7F0FE0D463168044609B356
:103D14002846FFF71FFF18B12846FFF727FF10BBFF
:103D240000230DF10F02CDE900338DF80E308DF82C
:103D34000F3028460B460DF10E0102F026FE484ACC
:103D440004F1080132F8113023F0020343F00103B7
:103D540022F8113073687BB328461F785968FFF73F
:103D6400F9FE10B1E9B13F4829E03D4A04F10800E9
:103D740032F8103023F02003DB04DB0C22F810307F
:103D840079B1032FEFD87168D1F804E0D8F80010A6
:103D94009EF800C001EB8C01A7B9C1F81075C1F8F9
:103DA40010752F4A04F1080132F8113023F01C0376
:103DB40043EA870322F81130B3683BBB2A4805B0B5
:103DC400BDE8F083D1F810E543EA4C332EF0030E3E
:103DD400C1F810E5D8F8001043F0200301EB8C0E75
:103DE400DEF8101522F8103021F44F3121F440711F
:103DF400CEF810152902DEF8108501F47C5141EA51
:103E0400074141EA0801CEF81015CAE72846D3E96C
:103E14000067FFF7D5FE002ED0D0114DD5E9002361
:103E2400964203D19F4201D1002209E00F480DF1CF
:103E34000F01FFF703FD0C4B9842C0D19DF80F20F2
:103E440005EBC20308345F6035F8143045F832607E
:103E540043EA422343F4807325F81430AEE700BFED
:103E64006C0000200400AD0B0000AD0BE40000204A
:103E74002DE9F0430C46804685B0204611461D4688
:103E8400FFF732FE064629B32046FFF763FE18B952
:103E94002046FFF76BFE18BB334F06F1080937F8CD
:103EA400193013F01C0F02D04B78012B18D00123CA
:103EB4008DF80F3000234A1CCDE9001320468B1CDB
:103EC4000DF10F0102F061FD37F8193043F00303DF
:103ED40027F81930002D44D02046FFF73BFE18B9CF
:103EE400224805B0BDE8F083002295F800C0D8F858
:103EF40000301D4F03EB8C03C3F81025C3F81025C5
:103F040006F1080237F812104FEA8C0E21F0200156
:103F1400C904C90C27F812106E7816B3D8F800003B
:103F2400AD787044D0F81035360423F4991323F493
:103F3400F853C0F81035230203F47C5306F44036DA
:103F44002D05D0F810E5334305F480152B4341EAE1
:103F54004C3143EA0E0341F02001C0F8103527F834
:103F640012100348BDE700BF6C0000200400AD0B35
:103F74000000AD0B014BC3E9021270476C00002036
:103F840010B508461446FFF7F1FD50B10846FFF797
:103F9400ABFD054B083033F8103004485B0B23703D
:103FA40010BD0348FCE700BF6C0000200000AD0B0F
:103FB4000400AD0B70B5154D064695F880401CBB4A
:103FC4002146602205F1100002F0FBFE2146306814
:103FD4002E6F8E420ED10023C0F87C31D0F87C3194
:103FE40040F30730FDF71CFD0123094885F88030B4
:103FF400AB6770BDCBB29B0003F580727C2B04BF12
:10400400845083580131E4E70248F2E76C00002051
:104014000000AD0B0C00AD0B034B93F8800000388F
:1040240018BF0120704700BF6C0000200148FFF753
:1040340025BC00BFE00000200148FFF7FFBB00BF24
:10404400E000002073B503681646D3F80423054640
:10405400002AA8BF4FF000420846A8BFC3F80423B3
:104064000C46FFF783FD00B30846FFF773FD0146D6
:10407400D8B92046FFF762FD04B2A40003462868BD
:1040840004F580728150296882582144D1F81025A2
:1040940042F00102C1F810252EB10122296802FA6A
:1040A40003F3C1F8043302B070BD2046FFF71CFDD2
:1040B4000E4B083033F81030C3F38203042B11D0B5
:1040C400052B11D001A80194FFF7FCFC019A0369A8
:1040D400D34003F00103991C204602B0BDE87040B0
:1040E40002F09CBC0321F7E70221F5E76C000020F5
:1040F4002DE9F04F684BDFF8A481D3F80403D8F816
:104104007010C0B289B040F00040FFF785FD051E75
:104114002FDAC24600235AF87C1F06A8CDE90633DD
:10412400FFF730FD4FF0000B5D4B0DF118090193C3
:10413400019A12F8013B0192DA081AF8022003F0FE
:10414400070322FA03F3DA071CD409F10409BBF1CB
:10415400000F14D0D8F870104FF00040FFF75CFD4A
:10416400D8F87C1006A8FFF70DFD0028DAD125F059
:1041740000450124002D76D109B0BDE8F08F4FF041
:10418400010BD5E7474B5B440293D9F80010002993
:10419400DBD091FAA1F1B1FA81F1029B1C7841EADA
:1041A40044142046FFF7A0FC083038F81070C80803
:1041B400BB080393012319F8002001F0070103FA57
:1041C40001F122EA010209F8002005A80594FFF78D
:1041D40079FC059A039B803250F82220C7F38206AB
:1041E4005B073746C2F3014222D520463946D6B290
:1041F400FFF784FC05A80594FFF764FC059B803356
:1042040050F82330C3F301439E4207D100212046D6
:1042140002F004FC3146204602F000FC05A8059497
:10422400FFF750FC0122059B02FA03F30362ACE79B
:10423400022A0CD10321204602F0F0FB06F005030C
:10424400012BEBD139462046FFF758FCE6E7022163
:104254002046039202F0E2FB032EF3D0039A032AD2
:10426400DCD1022EEDE795FAA5F3B3FA83F304FA51
:1042740003F29B0003F1A04303F55043D3F8100568
:10428400D3F81015C0F30520C1F3014125EA020556
:10429400FFF734FC6EE700BF00D000506C00002034
:1042A400D67A0000D67A000070B5084C0E46237901
:1042B400154643B92A20FDF7B3FB012304482371B3
:1042C4002660A56070BD0348FCE700BFD00C002049
:1042D4000000AD0B0C00AD0B002330B50D4A50F8B7
:1042E400234003F5A2710133102B42F82140F6D18B
:1042F4000023084A00F13C0103F5B27451F8045F4D
:104304000133102B42F82450F6D1D0F88030C2F893
:10431400043330BD00A002500123024A8340C2F896
:104324000433704700A002500123024A8340C2F8BC
:104334000833704700A00250F8B5012600270B4B44
:104344000B4DD3F80C4304B9F8BD94FAA4F0B0FAB9
:1043540080F006FA00F324EA0304064B82009F501F
:104364002B68002BEFD0A9689847ECE700A0025017
:10437400D00C002000A10250036803F01F025B0967
:10438400026004D0012B034818BF00207047024884
:10439400704700BF00288450002584502DE9F34164
:1043A400437D01462BBB436801A80193FFF7E4FF5B
:1043B4000123019A2F4C9340C3604B6801A80193D9
:1043C400FFF7DAFF019B00EB8300D0F800322340B3
:1043D40043F00303C0F800328B6801A80193FFF790
:1043E400CBFF019B00EB8300D0F800322340C0F8E0
:1043F40000328B7D33B9D1E901021F4BC3F840056C
:10440400C3F844254B780A785B00D1F80CE091F8A6
:1044140010C04F7C91F814808E7DD1E90150164C68
:10442400C97C03F0020302F001021343C4F820150F
:10443400C4F84C85C4F804E5C4F80835C4F818C5B4
:10444400C4F81C751EB9C4F84055C4F844050023CB
:10445400C4F80031D4F800212620C4F80431D4F87B
:104464000431FDF7DDFA0323C4F8043302B0BDE8D8
:10447400F08100BFF0F0FCFF0060025010B50D4C5D
:10448400227C9AB9C4E9012262822160627448B133
:10449400427D6275027C502A0AD8437C502B07D88F
:1044A400FFF77CFF01230448237410BD0348FCE795
:1044B4000348FAE7DC0C00200000AD0B0C00AD0B48
:1044C4000400AD0B084B5A7C22B15B7C012B09D054
:1044D4000648704702225A7401221A754022044B7E
:1044E400C3F8042103487047DC0C00200B00AD0B1B
:1044F40000E100E00000AD0B70B51D4C0646237CC6
:104504000D4673B3637C032B2DD070B30B042CD4F2
:104514002620FDF793FA627CA37C022A16BFDB43B4
:10452400002303F0010304EB83025168B9B904EBDF
:1045340043039D810F4B5660C3F86065C3F864550F
:10454400227C022A05D0022222740122C3F800250B
:104554001A60094C2620FDF763FA204670BD074C0B
:10456400F8E7074CF9E7054CF7E7064CF5E700BF19
:10457400DC0C0020006002500000AD0B0B00AD0B02
:104584000500AD0B0400AD0B1FB5404B404CD3F8F8
:104594000021002A43D00022C3F80021D3F80011DF
:1045A400D3F8041119B1C3F80421D3F80431A37C5E
:1045B400DA4302F0010204EB8201496811B9617C1B
:1045C400022951D1607C002102280DBF012304EB94
:1045D40083035868637418BF59604FF001038DF862
:1045E4000C10E1740EBF02910290A2748DF8043095
:1045F400236801A89847637C022B01D101236374CB
:10460400237D53B101238DF80430002301A80293C4
:104614008DF80C3023752368984704B010BDD3F887
:1046240004110029ECD0C3F80421D3F80411C3F811
:104634000025A37C627404EB830359688DF80C2075
:104644008DF80420D9B9A37CDB4303F0010304EB08
:1046540083035A682AB10292002201A85A6023688F
:1046640098470023A374CBE7E37C002BC3D18DF8D8
:104674000430029301238DF80C30E374B8E75A60D8
:104684000291236801A89847DDE700BF006002504B
:10469400DC0C00201FB50446FCF7C2F9064B0122CE
:1046A4000293002305491846CDE9003302F0FDF9D1
:1046B400204602F00AFA00BFD87A0000CC6F00004E
:1046C4002DE9F041054686B00E46EFF3118820230C
:1046D40083F31288BFF36F8F0024042898BF234B01
:1046E400234A98BF53F82030976888BF214B127C27
:1046F4002149CDE90432214B039002930122234640
:104704002046CDE9004402F0D0F96EB1F369C3F359
:1047140008034BB11A4B0122CDE90143204623463D
:104724001549009402F0C1F92FB1384602F05AFA43
:1047340008B1037803B91348134B012202930023F1
:10474400CDE90370CDE9003318460B4902F0ADF909
:1047540031462846FFF79EFF88F31188BFF36F8F19
:10476400384606B0BDE8F041FDF7C8B8E071000076
:10477400F40C0020E77A0000CC6F0000FD7A000002
:10478400257B0000F57A0000467B000038B5094B14
:1047940053F82040013053F82050A54200D838BDCA
:1047A400636823B1204602F098F90834F5E72368DA
:1047B4009847FAE7F4710000012270B5294B0320F1
:1047C40086B01A70FFF7E2FFFCF7A4FB0420FFF7A2
:1047D400DDFF254C254D2646AE4204F1300410D3AE
:1047E40000F03AFC204C224EAC4226D300F048FCA8
:1047F400FBF7DCFC1F4A137B23F00103137306B0A1
:1048040070BD54F80C3C059354F8103C049354F8D0
:10481400143C039354F8183C029354F81C3C019341
:1048240054F8203C009354E90A2354E90C0100F0A5
:1048340011FA54F8303C5E65CDE7D4E90A23B3F1AC
:10484400FF3F08BFB2F1FF3F05D052EA03012068E1
:1048540003D102F0C9F93034C6E73146183000F00C
:10486400C3FDF8E705410020946F0000946F000039
:10487400F96C00009004002008B50348034A0021A5
:10488400121A02F042F908BDE0030020084100209A
:104894000023012270B586B0CDE904230F220193D1
:1048A400CDE9023214234FF4A0720E4D0E4E03FBD9
:1048B40000550E4906EBC016044602FB00110C4BD2
:1048C4003046009500F0C6F9737B2C7423F0040382
:1048D4007373084B013403EBC423EE606B6006B0C2
:1048E40070BD00BFF40C0020100400200849002013
:1048F400A96B000008410020BFB50020FFF746FF68
:104904002D4B03F5006282F3088883F30A880024A0
:10491400E0232A4D2A4E85F82230EC772C766C76EB
:10492400AC7685F820406B6A264F43F4E0236B6233
:1049340085F82340FCF764FFFDF7FCF84FF0FF33E4
:10494400AB62EB62FDF7A8FAFDF718F9FCF754F82F
:1049540040F201121C4B1D4D9A81B360C3E9184407
:10496400DC6602F096F80120FFF710FF0220FFF743
:104974000DFF00F0A5FB164B756105930123154946
:104984004FF48052CDE9034328463B46CDE9014428
:10499400009400F05FF906466A7B284622F0040280
:1049A4006A7302F05DF92046FFF772FF3A4631461A
:1049B4002846FDF79DF800BF0841002000ED00E007
:1049C400F40C0020BD4700001005002090040020D6
:1049D400A87B0000484A0020002038B5054C064D4D
:1049E400AC4200D338BD204602F093F80028F9DB2E
:1049F4001C34F5E7900300209003002073B50C46A7
:104A0400EFF31181202585F31288BFF36F8FC568FA
:104A14005DB125602B68C360836901338361002025
:104A240081F31188BFF36F8F11E052EA030603D1BB
:104A34006FF00B002560F3E7CDE900230246083050
:104A440000F056FA18B9034B9B685B69236002B007
:104A540070BD00BFF40C00202DE9F3410446174655
:104A64001E46EFF31188202383F31288BFF36F8F60
:104A7400C368334A7BB180689168884219D057EA89
:104A8400060318D188F31188BFF36F8F6FF00F00FE
:104A940002B0BDE8F081916891F90E100133E36032
:104AA40093682161A36088F31188BFF36F8F00209E
:104AB400EEE72169F2E791F90E1090F90E306FF0EC
:104AC4007E029942A8BF19469142B8BF11468B4253
:104AD4002DDD02F072F8054622464146CDE9007606
:104AE400184800F005FA0028E1D0EFF311862023DE
:104AF40083F31288BFF36F8FA068D0B12368216954
:104B04009C420AD04BB193F90E309942A8BF194682
:104B14006FF07E039942B8BF194602F04EF840B1D7
:104B24003146084800F054FA6FF00A00B0E7002557
:104B3400D2E7002DF4D186F31188BFF36F8FF3E72A
:104B4400F40C00200641002038B58368044663B3A2
:104B5400194A926893422BD1C368012B03D9013BB4
:104B6400C360002038BDEFF31185202383F312883E
:104B7400BFF36F8F0169806802F01FF8204602F0CE
:104B8400BDF8A06058B190F90E202261002282671E
:104B940002F066F82946094800F01AFAE1E7E060F5
:104BA40085F31188BFF36F8FDBE76FF01500D9E74A
:104BB4004FF0FF30D6E700BFF40C00200641002080
:104BC40038B50446EFF31185202383F31288BFF32D
:104BD4006F8F02F093F848B10022826702F040F828
:104BE4002946BDE83840074800F0F2B9D4E902325A
:104BF4009A4218BF0133A36085F31188BFF36F8F06
:104C040038BD00BF0641002013B5EFF31181202405
:104C140084F31288BFF36F8F846844B1013C8460CD
:104C240081F31188BFF36F8F002002B010BD52EAE8
:104C3400030406D181F31188BFF36F8F6FF00F0067
:104C4400F3E7CDE900230246014800F051F9ECE70F
:104C5400064100202DE9F043984685B000F1580341
:104C6400C0E91633109B002603730423073222F095
:104C7400070543730F9B01EB05090F4683734946F0
:104C8400C0E906668660C6730446FCF7B5FA0E9B57
:104C9400073020F00700A066C4E9187502930D9B45
:104CA400A9EB000901930C9B4A46009339464346FD
:104CB4002046FCF701FF054B66659B6803B1DB6E7C
:104CC4004846E36605B0BDE8F08300BFF40C00205D
:104CD40038B50D4D2B4653F8184F9C4200D004B9FB
:104CE400EC68AB6838B95A7BD20604D1A26912B910
:104CF400DA897F2A05D89C4202D0204600F0BCFA0B
:104D040023466B6138BD00BFF40C002008B590F950
:104D14000D200146002A437B04DA03F07F0343732A
:104D240001F064FF044B9868431A58425841BDE8A7
:104D34000840FFF7CDBF00BFF40C002070B490F919
:104D44000D30427B002B29DBD30627D183692BBB93
:104D5400134962F07F0242730A4652F8184F944294
:104D640018BF2346CC6923B9C0E900242060C86178
:104D74000CE090F90E5093F90E60B5420AD0AE42A1
:104D840008DD5A68C0E9003210605860002070BC29
:104D9400FFF79EBF9C42E7D01B68E4E770BC7047F6
:104DA400F40C0020002A2DE9F0410E460CBF10211E
:104DB4000821427B044611420FD141EA0203D20981
:104DC40018D1437308291BD00120FFF781FFBFF3DB
:104DD4005F8F637B23F060036373264B9B68A3425E
:104DE40041D1EFF30583002B3DD13046BDE8F041BE
:104DF400FCF79ABD03F07F03437301F0F7FEE1E78C
:104E0400A36813B1204601F0F9FE04F1180001F083
:104E1400B2FF4FF0000804F15807A56DBD4200D061
:104E2400A5B9144DAB689C42CED1EFF30583002B9A
:104E3400CAD00120FFF74CFF40F201120E4B9A81B9
:104E44000022AB60C3E91822DA66C0E7284601F005
:104E5400D5FE05F1180001F08EFF2846C5F87880CC
:104E6400FFF76CFFD9E786F31188BFF36F8FBDE8B6
:104E7400F08100BFF40C00201005002070B590F9FB
:104E84000D200146002A437B04DA03F07F034373B9
:104E940001F0ACFE154A4B7B104663F07F034B7365
:104EA40050F8183FD469834208BF002323B9C1E9ED
:104EB40000042160D1610CE091F90E5093F90E6069
:104EC400B5420ED0AE420CDD5868C1E90030016035
:104ED40059609068BDE87040431A58425841FFF742
:104EE400F7BE9C42E3D01B68E0E700BFF40C00204F
:104EF400F8B5124B0C46DDE9067611469868104A5F
:104F04001060EFF31182202282F31288BFF36F8FB7
:104F14009D68284601F07CFEB6F1FF3F08BFB7F15B
:104F2400FF3F06D03A463346064905F1180000F023
:104F34005BFA2046BDE8F840FCF7F6BCF40C002010
:104F4400140D0020F96C0000F8B50446EFF3118647
:104F5400202383F31288BFF36F8F437B49B2DA06B1
:104F640019D18569BDB903F07F03437301F03EFE97
:104F7400437B164A63F07F0343731346817353F8EC
:104F8400180F984218BF0546D0695DB9C4E90030CE
:104F94000460D46111E00020A17386F31188BFF38B
:104FA4006F8FF8BD95F90E70B9420BD08F4209DDB1
:104FB4006B68C4E900531C606C600120FFF788FE35
:104FC4000120EAE7A842E1D02D68DEE7F40C0020D6
:104FD40049B9EFF3058030B9054B5A699B689A4289
:104FE40001D0FCF7A1BC81F31188BFF36F8F704728
:104FF400F40C002010B5EFF31184202282F3128800
:10500400BFF36F8F427B510704D484F31188BFF33D
:105014006F8F10BD22F004024273FFF78FFE21460A
:10502400BDE810400148FFF7D3BF00BF0641002090
:10503400034648B9EFF3058232B9064A51699268CA
:10504400914201D0FCF770BC83F31188BFF36F8FDA
:10505400704700BFF40C0020EFF31181202383F389
:105064001288BFF36F8F054B9A68D37B013BD373D0
:1050740081F31188BFF36F8F704700BFF40C0020D9
:1050840038B5EFF31185202484F31288BFF36F8FB2
:105094000A4B00209A68D37B0133D373FFF718FEC1
:1050A40085F31188BFF36F8FEFF3118084F31288B7
:1050B400BFF36F8FBDE83840FFF7BABFF40C002090
:1050C400024B03F11802C3E906227047F40C0020D6
:1050D400F8B5EFF31185202383F31288BFF36F8FA4
:1050E40019498868437B03F07F03437301F07EFD15
:1050F40008468B685A7B62F07F025A7350F8182F67
:10510400CC69824208BF002222B9C3E900042360AB
:10511400CB610CE093F90E6092F90E70BE420ED092
:10512400B7420CDD5168C3E900210B6053600120D4
:10513400FFF7CEFD2846BDE8F840FCF7F5BBA242D8
:10514400E3D01268E0E700BFF40C002050EA01034A
:105154002DE9F04105460E4603D1FFF7B9FF0020C3
:105164002BE0831C71F1FF3329DB01F019FE2C18AD
:10517400EFF31188202383F31288BFF36F8F124F4C
:10518400124BB8681860FFF7C1FDB86810492A4689
:105194003346183000F028F9BA684046537B43F090
:1051A40010035373FCF7C0FB01F0FAFD201A63EB04
:1051B4000303012873F10003D1DBBDE8F0816FF034
:1051C4000104241AD4E700BFF40C0020140D0020BD
:1051D400F96C0000B1F1FF3F08BFB0F1FF3F08B523
:1051E40006D10A4B986801F04AFD4FF0FF3008BD24
:1051F400FFF7ACFF4FF47A7147F6FF730022C0FB50
:105204000132D80B40EA4240F1E700BFF40C002021
:10521400014B9868704700BFF40C00200122044B36
:10522400C01A044BC0105843034B1A54704700BFB4
:1052340090050020ABAAAAAA06410020C3897F2BAF
:1052440012D80A4B1B6863B1094B90F90E201B68F6
:105254009A4209DB437BDB0606D1064BC31A18BF0F
:10526400012303F0010070470023FAE71C0D00201E
:10527400180D00201004002070B50E4B0E4C1E7C3F
:10528400054606EB460304EBC304204601F073FD18
:1052940000220A4B28469A55FFF7D0FF48B1084B25
:1052A4002046BDE870401A680649013AD31700F059
:1052B4009BB870BDF40C002090050020064100202E
:1052C4001C0D00202152000038B5EFF31185202376
:1052D40083F31288BFF36F8F104B114A9C681068D8
:1052E400A04206D1FFF7C8FF85F31188BFF36F8F83
:1052F40038BD00211B7C11600A4AD35C002BF3D01B
:105304002046FFF79BFF0028EED0637BDB0602D12B
:105314002046FFF7B3FD2046E4E700BFF40C00206D
:10532400140D00200641002008B50648064A074926
:10533400121A01F0ECFBBDE80840054A054906488D
:1053440001F0E5BB00000020E0030020C07B00006A
:1053540000000000C07B000000000020034B1B681D
:105364000BB9FEF76DB90020704700BF200D002077
:1053740030B570B10B4B5B6898420AD0036843B1F7
:10538400D3E90421D0E90445121941EB0501C3E92D
:105394000421D0E9003213605A600023C0E90033CD
:1053A40030BD00BFF000002010B50E4B1C689C42BD
:1053B40004D1FFF7D3FF6FF0004010BDFFF7CEFF1D
:1053C400002CF8D0D4E904321B1A62EBE072B3F17A
:1053D400004F72F10001EEDA002AACBF184600203B
:1053E400EBE700BFF0000020B3F1FF3F08BFB2F1CC
:1053F400FF3FF8B504461D4616465ED08160EFF3C4
:105404001187202383F31288BFF36F8F013275F164
:10541400FF3324DA6FF001032D49D1E900209B1AF0
:105424004FF0FF3262EB00009E1B60EB0500012E83
:1054340070F1000301DA01260020C4E90460254E5E
:10544400D6F800C07568B44508BF4FF0000CBCF135
:10545400000F0DD1C4E900652C6074601CE0FFF7F7
:105464007DFF013645F10005361845EBE070E4E7B1
:10547400DCE90420D4E90431934271EB000E1DDA17
:10548400D21ADCF8043060EB0100CCE90420C4E952
:1054940000C31C60CCF804403368B34209D09C427A
:1054A40007D10D4B1C6824B9FFF77EFF2146FEF798
:1054B40099F887F31188BFF36F8FF8BD9B1A61EBDE
:1054C4000001AC45C4E90431C4D0DCF800C0BEE737
:1054D400A8050020F0000020200D00202DE9F84F41
:1054E400EFF3118C202383F31288BFF36F8FDFF85F
:1054F400B0A0DFF8B0900024C9F80000DAF800008A
:105504000025504508BF0020274FE046D7E9002179
:10551400D9F8003078B3D0E9046C4FEAE37EB342A3
:105524007EEB0C0B05DAF61A6CEB0E04C0E904648E
:1055340021E0B21841EBE671C0E90445C7E9002156
:10554400FFF716FF88F31188BFF36F8F83689847BE
:10555400EFF31188202383F31288BFF36F8FD9F8F8
:105564000030DAF800009B1B5045C446C9F80030EF
:10557400CBD1D7E9002100249A1841EBE373C7E9A2
:105584000023C9F80040FFF70FFF2146FEF72AF871
:1055940088F31188BFF36F8FBDE8F84FFFF794BE0F
:1055A400F0000020200D0020A805002010B5EFF326
:1055B4001184202383F31288BFF36F8FFFF7CEFE8D
:1055C4000346054AD2E90001181841EBE37184F35C
:1055D4001188BFF36F8F10BDA805002010B50A4CC9
:1055E40023681BB101232360002010BD00F0F4F8F0
:1055F4000028F7D00138072803D8044B53F82000BB
:1056040010BD034810BD00BF240D00200C72000023
:10561400FE8FFFFFBFF34F8F0549064BCA6802F4A4
:10562400E0621343CB60BFF34F8F00BFFDE700BFC1
:1056340000ED00E00400FA0530B44FF0FE3200251E
:105644000B4B0C4C0C494968C3F80024C3F80424E0
:10565400C3F80824C3F80C24C3F81024C3F8142492
:10566400C3F81824C3F81C24C4F8005530BC0847F8
:105674000050845000408450F8000020024BD0E9D0
:105684000012C3E900127047F800002010B5044668
:1056940050B1636813F0685F05D0064A934202D0A4
:1056A40000236260236010BD034B04485B68984785
:1056B400EFE700BF2C5F5CA9F80000202C7200000B
:1056C400C8B143680D4A934213D013F0685F0ED0FB
:1056D400012350E8002F194640E8001C9CF0000FFD
:1056E400F7D1012AF5D0BFF35F8F0020704704483B
:1056F4007047044870476FF4E04070472C5F5CA922
:10570400E98FFFFFEA8FFFFF034680B14268094932
:105714008A420AD012F0685F05D0BFF35F8F00227F
:1057240010461A60704704487047044870476FF485
:10573400E04070472C5F5CA9E98FFFFFEA8FFFFF11
:1057440010B5044620B10023034A2360626010BDF3
:105754000248FFF771FFF6E73A00003A547200007E
:1057640070B5194CD0F804C00668C4F804C0D0F869
:1057740008C0C068C4F808C0E06026600868134B1D
:10578400134D18604868D5F818215860886812F0DD
:10579400685F9860C8680969D860196112D00023ED
:1057A4000C4A05F58A70C5F81431C5F8B831C5F846
:1057B4001821C5F8BC21B047236805F5DC70BDE8A5
:1057C4007040184770BD00BF140100200001002084
:1057D4003C0D00202C5F5CA908B500F011F830B92D
:1057E40000F010F838B9054AC2F80C0A08BD00F0F8
:1057F40037F8032008BD042008BD00BF00508450C2
:105804000020704710B5114800F048F800B110BDF1
:105814000F4800F043F80028F9D10E4C204600F060
:105824003DF80028F3D10C4B0C481C6000F036F80E
:1058340001460028EBD100F02DF8044608B12046BB
:1058440010BD00F03FF82046FAE700BF54010020E5
:10585400500100204C010020440100204801002098
:1058640008B5084800F024F8074800F021F8074874
:1058740000F01EF8064800F01BF8BDE8084000F0F0
:105884000BB800BF54010020500100204C0100203F
:105894004801002000207047704700BF08B5034B43
:1058A40002681B6810689847002008BD1401002096
:1058B40008B5034B02685B6810689847002008BD70
:1058C4001401002070B5094C094D2069AB68984754
:1058D40018B1084B08485B6898470021074AEB68F1
:1058E40011602069BDE87040184700BF0001002026
:1058F40014010020F800002078720000380D002008
:105904002DE9F04F43688DB01546804602938378A5
:105914009A0740F10D8100240E78002E00F00A81D0
:10592400252E0BD04B1C0393013441463046029B79
:1059340098470028C0F2F6800399EDE74E788B1C57
:10594400252E0393F0D00027B946BB46BBF11F0FA9
:1059540038D8A6F12003102B0AD8DFE803F02A096F
:1059640009300909092109090928092D09091F0014
:10597400A6F13003092B33D92A2E37D11BF0400F5F
:1059840055F8043B40F08280002BA7BF4BF0200B5E
:105994009946C3F100094BF0280B01E04BF0010BD1
:1059A400039B13F8016B0393002ECFD130E04BF02F
:1059B400020B4BF0040BF3E74BF0080BF0E74BF052
:1059C400100BEDE7BBF17F0F19D8A6F13003092BBB
:1059D400D2D81BF0400F03D00A2101FB0737DFE7C1
:1059E4000A214BF0200B01FB0939D9E72E2E06D1F1
:1059F4001BF0400F40F09E804BF0400BD0E76C2E24
:105A040031D02BD8682E36D06A2E3CD04C2E3AD0CA
:105A1400002F46F02003B8BF2BF04002A3F165012C
:105A2400BCBF00271FFA82FB022901D9612B2FD1A9
:105A340007350727DFF8ACA225F0070508351BF06A
:105A4400080F66D00AEB070B56465E4563D1A4EBFC
:105A54000A0AA9EB070906EB0A026FE1742E9FD02C
:105A64007A2E9DD0D4E71BF0800F18BF4BF4007B37
:105A74004BF0800B94E71BF4807F18BF4BF4007B42
:105A84004BF4807B8CE74BF4207B89E71F4687E748
:105A9400A6F16301122900F2F080DFE811F013008F
:105AA4004F00EE00EE00EE00EE004F00EE00EE00C0
:105AB400EE00EE00EE00FE00E900EE00EE001B003A
:105AC400EE00AF0055F8043B01270DF1180A8DF8DC
:105AD4001830B4E755F804AB834BBAF1000F08BF94
