:10000000E07B00201D0B000077520000090B000070
:10001000090B0000090B0000090B0000090B000090
:10002000000000000000000000000000C90C0000FB
:10003000090B000000000000890C0000090B000003
:100040004D0E00004D0E00004D0E00004D0E000044
:100050004D0E00004D0E00004D0E00004D0E000034
:100060004D0E00004D0E00004D0E00004D0E000024
:100070004D0E00004D0E00004D0E00004D0E000014
:100080004D0E00004D0E00004D0E00004D0E000004
:100090004D0E00004D0E00004D0E00004D0E0000F4
:1000A0004D0E00004D0E00004D0E00004D0E0000E4
:1000B0004D0E00004D0E00004D0E00004D0E0000D4
:1000C0004D0E00004D0E00004D0E00004D0E0000C4
:1000D0004D0E00004D0E00004D0E00004D0E0000B4
:1000E0004D0E00004D0E00004D0E00004D0E0000A4
:1000F0004D0E00004D0E00004D0E00004D0E000094
:100100004D0E00004D0E00004D0E00004D0E000083
:100110004D0E00004D0E00004D0E00004D0E000073
:100120004D0E00004D0E00004D0E00004D0E000063
:100130004D0E00004D0E00004D0E00004D0E000053
:100140004D0E00004D0E00004D0E00004D0E000043
:040150004D0E000050
:10015400034613F8012B002AFBD1181A0138704703
:1001640070B5037804467BB1194D1A4B28781A4AA6
:100174004FF4486100280CBF1046184602F0DEFF19
:100184002B7883F001032B706368DBB101214CF2FF
:10019400D220124A03F5C8551170114A1468114A45
:1001A4001168814209D8116804334E1C166033F972
:1001B400026CAB4224F81160F2D14CF2D2231268E3
:1001C4009A4200D870BD0122074B1A70FAE700BFAB
:1001D400843E002084250020840C0020855E0020BD
:1001E4006403002060030020865E002002232DE9C2
:1001F400F0418AB04C4A4D49009301204FF400531A
:1002040003F006F94A4805F0B7FD4A4E306030B9AC
:10021400494905F0A3FB00200AB0BDE8F08118228B
:10022400002104A805F01FFE252227234FF020619A
:10023400CDE90523414B04A8CDE90713404902F059
:100244003FFF404B984202D03F490020E1E70022A3
:100254000121262000F076FD262000F043FD4FF416
:1002640048613A4802F06AFF4FF44861384802F0A6
:1002740065FF02F049FF374C23789BB102F0A6FFDB
:10028400354F00214FF4247003F030FED7F800807E
:100294003D6808356D00284605F06EFD044630B90A
:1002A4002E49B6E70021212003F020FEE4E7502385
:1002B4000370432343704D2383703123C37044F28E
:1002C400F103436000233A68C360C0F80880520019
:1002D4003168103005F0BAFD22464FF0FF33DFF8E5
:1002E40080C02F19974211D1DB432946204603933E
:1002F40004F00DFC042103A804F009FC204605F0D9
:1003040034FD306805F031FD16499EE712F8011BF3
:100314004B40082143F3000000EA0C00013980EA55
:100324005303F7D1DEE700BF853E002034640000AC
:10033400A6850100640300203C640000282807000F
:10034400650100000000AD0B5B6400008425002003
:10035400840C0020865E0020600300207664000088
:100364002083B8ED90640000014B1B68184700BF60
:100374000000002030B585B004460D46102200214F
:10038400684605F070FD02238DF80230044B2A46BE
:1003940021466846019304F05FF905B030BD00BF03
:1003A4006D03000080B505460E461746984603F0D7
:1003B400BBFD034605F0C2FD0446DFF81890424633
:1003C40049F8003039463046A84754F8090000F08F
:1003D4000BFC00BF080000002DE9F047058B044624
:1003E4002807904611D4022905F0070540F0CC8077
:1003F400204604F05BFE78B10138218B042811D823
:10040400DFE800F0C2106D85950001290CBF45F0AE
:10041400100545F02005258388F31188BFF36F8FFD
:10042400BDE8F08701F0070AAA4500F0A58000277F
:10043400B9463E46A368002B00F0BC8041F0080199
:10044400218388F31188BFF36F8FA168002900F01E
:10045400BA800D68002900F0B68033465246204623
:10046400D1F80480C047002D76D02B6829461D465C
:10047400F0E701F007035A1F012A1BD8002221F0DC
:100484000701062B276889B2C4E9002209D13B463B
:1004940003E0628B013262831B68002BF9D141F0C7
:1004A40002012046218304F001FE00287AD041F0A5
:1004B400200176E0042B0AD121F0070189B22046FD
:1004C400218304F0F3FD10B141F020012183218B3D
:1004D40001F0070AAA454FD00027B946AAE72369C5
:1004E40021F0070141F00601062DD3F80090218385
:1004F4002DD1B9F1000F3FD041F00801218388F3D9
:100504001188BFF36F8F20463949C84729E021F08D
:100514000701236941F0040189B2042DD3F8049042
:100524002183E6D000274FF0040A3E4682E721F0FB
:100534000701236941F0050189B2052DD3F808901C
:100544002183D6D000274FF0050A3E4672E70027E4
:100554004FF0060A3E466DE72B4687E7B9F1000FD8
:10056400D1D1EFF31188202383F31288BFF36F8F67
:10057400238B23F008032383258BEA062ED525F04D
:100584001003238305F007056669218B002EBFF64F
:1005940070AF00232768C4E9003321F0070141F05C
:1005A40001012183218B4FF0000901F0070AAA45BC
:1005B4007FF440AF002F9CD041F00801218388F3E1
:1005C4001188BFF36F8F002FC8D03D68394633467A
:1005D4005246204604F096FD2F46F4E7AB067FF51D
:1005E4001BAF25F02003238305F0070500E700BFB8
:1005F40035510000014B0360002070474862000041
:1006040008B5044804F045FDBDE80840024804F07C
:1006140040BD00BFB5640000EA640000014803F077
:10062400D9BE00BF4862000038B5044618B90F4B64
:100634000F485B6898476168B1F5683F10D0B1F521
:10064400680F0DD00B4DA9420AD011F468612068DF
:1006540007D00146084805F0E4F9002323606560EB
:1006640038BD142205F0FFFBF9E700BFD4000020D9
:10067400186500002C5F5CA96808002008B560B309
:100684004368B3F5683F0ED0B3F5680F18D0144A29
:10069400934220D000684FF0FF324FF0FF3303F055
:1006A40065F858B115E001220368D3E8EF1F00296B
:1006B40003D1C3E8E02F0028F7D10AD1002008BDF8
:1006C4000368084A1B7803F5807352F82330002B23
:1006D400F4D00548F3E70548F1E76FF4E040EEE7AE
:1006E4002C5F5CA900000350E98FFFFFEA8FFFFF36
:1006F40008B520B34368B3F5683F09D0B3F5680F74
:1007040013D0114A93421DD0006803F0A7F814E0F7
:1007140000220368D3E8EF1F012903D1C3E8E02FC7
:100724000028F7D109D0094808BD00210368084A08
:100734001B7803F5807342F823100020F4E76FF46C
:10074400E040F1E70348EFE72C5F5CA9E98FFFFF86
:1007540000000350EA8FFFFF10B5044618B91D4B83
:100764001D485B6898476368B3F5683F2FD0B3F5BD
:10077400680F2CD0194A934219D1236803BB4FF058
:10078400FF324FF0FF332146154802F0C1FF08B98C
:1007940023681BB90F4B13485B6898471422002148
:1007A400206805F060FB4FF46863636008E0B3F50C
:1007B400683F0DD83A2B03D040F6BA629342DED19B
:1007C400206805F066F9636843F03A03636010BD7E
:1007D400054AF3E7D4000020186500002C5F5CA9EB
:1007E400680800203E6500003A00003A08B5064952
:1007F40040231422054805F006F9BDE808400449E1
:10080400044803F059BE00BF6803002068080020B4
:10081400506200006462000030BFFFF7FDBF00BFFC
:100824002DE9F04105460B4EDFF82C80324606EBED
:100834000807CC1B2046094905F008FBA0194246CD
:100844000021083C05F00FFB2C6707F10800BDE808
:10085400F08100BF00000000040000003C620000C2
:10086400074A936893F90E10002907DB52699342F3
:100874001FBF044A536843F080535360704700BF5E
:100884007C0A002000ED00E0154B9A6A12F0007F0C
:100894009A6A14BF1E201D2012F0807F9A6A18BF26
:1008A4001F2012F4801F9A6A18BF022012F4002F2E
:1008B4009A6A18BF212012F4802F9A6A18BF222046
:1008C40012F4003F9A6A18BF232012F4803F9A6AF8
:1008D40018BF24206FEA02426FEA12429A627047FC
:1008E40000ED00E010B5194B0246986A9C6A10F4BA
:1008F400805F14BF1720162014F4006F9C6A18BF81
:100904001820A40509D5986B986A000404D51AB177
:100914009A6A22F400429A6219200C4B9A6A12F4E1
:10092400806F9A6A18BF1A20D2050CD49B6A13F4FC
:10093400005F18BF1C20054A936A43F47F43936207
:1009440000230B7010BD1B20F5E700BF00ED00E095
:1009540010B51C4B0246986A9C6A10F0100F14BF25
:100964001120102014F0080F9C6A18BF1220A4074D
:1009740009D5586B986A000604D51AB19A6A22F010
:1009840080029A6213200F4B9A6A12F0010F9A6A3E
:1009940018BF142012F0200F9A6A18BF1520D4062D
:1009A40058BF9B6A074B9A6A920642BF5A6A22F45E
:1009B40000525A629A6A42F0FF029A6200230B7054
:1009C40010BD00BF00ED00E0F0B5474B04465B6886
:1009D40000258BB0C3F3080385F31188BFF36F8F31
:1009E40002F07F40B0F17F4F11D102F00C000828D3
:1009F4000DD010074CBF0C4601250022033B8DF897
:100A04000720032B05D8DFE803F02462665F2C4639
:100A1400F3E700239DF80720CAB902AE04F12007CA
:100A2400324620686168083403C2BC421646F7D1D6
:100A3400099A002D53D0C2F3080121B96FEA52225A
:100A44006FEA42220992184602A904F008FC0BB08E
:100A5400F0BD254BDA6A9107DBD4DA6A002AD8DBC9
:100A6400DA6A5200D5D55A69A16942F480725A6192
:100A7400BFF34F8FBFF36F8F5A6931F8021C22F412
:100A840080725A61BFF34F8FBFF36F8F4DF60272BE
:100A9400914209D09A6AD2B242B101200DF1070104
:100AA400FFF756FF0346B5E72368B3E79A6A12F4E3
:100AB4007F4F05D001200DF10701FFF713FFF1E788
:100AC4009B6AB3F5803FA4D3FFF7DEFEEAE700207C
:100AD4000DF10701E4E700200DF10701EDE722F431
:100AE400FF7222F00102ADE700ED00E0044B5A6909
:100AF40042F010025A615A6942F480625A617047A6
:100B040000ED00E0EFF30880EFF3098101B57246D0
:100B1400FFF75AFF01BD00BF002080F31488BFF324
:100B24006F8F002080F30A8880F30B8801F042FC69
:100B340000200E490860BFF34F8F0D4880F30888EA
:100B440000F02CF8202080F311880A484FF400614B
:100B5400401880F30988EFF314800221084380F3DE
:100B64001488BFF36F8F00F003F9000094ED00E0E8
:100B7400E07B0020A0620020002318460649D1F83B
:100B84009020C2F30722934200DB7047C1F89830EB
:100B9400C1F8A0000133F6E700ED00E010B572B62D
:100BA400002484F31388FFF7E7FF23464FF0FF3058
:100BB4000C4A03F120010133102B42F82100F8D133
:100BC40000234FF0FF30074A03F160010133102B7B
:100BD40042F82100F8D162B6BFF34F8FBFF36F8F95
:100BE40010BD00BF00E100E0084B9B6883420BD1BD
:100BF400EFF3058343B1064B5A6842F080525A60C2
:100C04005A6A22F400425A6205F01CB87C0A002099
:100C140000ED00E06FF00A01084A936899670849FB
:100C240058674B6843F080534B60002383F311886B
:100C3400BFF36F8F9368986F704700BF7C0A0020E2
:100C440000ED00E0EFF31183202383F31288BFF358
:100C54006F8F4FF00061084A53699360074A5160EF
:100C6400196F074A116000215A6F596782F311887E
:100C7400BFF36F8F704700BF7C0A002000ED00E0D7
:100C8400840800200E498A684FF030001044EFF3C6
:100C9400098C80E8F01F74467046FFF7D3FFA64620
:100CA40007498A6802F1300090E8F01F8CF3098844
:100CB40002F1000004B504F0E7FABDE8044070470F
:100CC4007C0A00201EF0040F0CBFEFF30880EFF342
:100CD4000980816911F8021C0229FFD001B504F0D2
:100CE400C4FA01BD40B2002807DB01234109034ACD
:100CF40000F01F00834042F82130704700E100E01B
:100D040040B200280CDB01220649430900F01F0011
:100D14008240203341F82320BFF34F8FBFF36F8FFE
:100D2400704700BF00E100E0054B420953F8222060
:100D3400012300F01F0003FA00F01040704700BFC9
:100D440000E100E040B2002801F10101ACBF00F174
:100D54006040064B4FEA4111C9B2ABBF00F5614098
:100D640000F00F0080F800131954704714ED00E0F0
:100D74000B4A08B50B4B22F07F029A60BFF34F8FEA
:100D8400BFF36F8FD3F8882022F47002C3F8882051
:100D940002F0FCFB03F054F900F04AF802F036FCD0
:100DA4000000000000ED00E042F8203C009B0B49ED
:100DB40042F81C3C019B21F0010142F8183C029BC3
:100DC40042F8081C42F8143C4FF0807342F8043C8B
:100DD4000023203A02654367704700BFA90300005F
:100DE4000C4B15469860026F0B4B0E461A60036E4F
:100DF40083F30B882C4686F309884FF00000074BD9
:100E0400984720464FF000014FF000024FF00003D6
:100E1400034C20477C0A00208408002095520000DF
:100E2400A90300001022014B1A61704700ED00E095
:100E3400002320210348C2180133452B82F80013F4
:100E4400F9D1704700E100E008B5EFF30583064AE5
:100E5400103B02EBC30152F8330049688847BDE8F0
:100E64000840FFF7FDBC00BF146000001FB5094C2B
:100E7400094A23460121094800F0FAF800230393A4
:100E8400074B0121E41A01A80193029400F0FAF837
:100E940004B010BD000007200000002074620000B0
:100EA400A001002010B50C7A0B6804F01F0223F097
:100EB4001F031A43CB68640923F01F03054943EA5F
:100EC400440343F00103C1F89800C1F89C20C1F821
:100ED400A03010BD00ED00E010B5074BD3F8903002
:100EE400C3F30723013B984202D8FFF7DBFF10BD91
:100EF4006FF01500FBE700BF00ED00E02DE9F04FB7
:100F04000F46144606464FF000084D4D85B0B845CF
:100F140080F29280D6F80490B9F1000F36D0B9F17E
:100F24001F0F40F2878019F01F0F40F08380D6F81E
:100F340000A01AF01F0F7DD1504604F0E5F9834656
:100F440009EB0A00013804F0DFF9834572D11BF183
:100F5400160F6FD05C456DDDC5F898B0D5F89C10C0
:100F6400C5F898B0D5F8A03021F01F0143F01F0A4E
:100F7400D6E900321A44994202F1FF391ED1CA451A
:100F840008D131465FFA8BF004F0C7F908F1010883
:100F94000C36BCE73146C5F898B0D5F89C3022F041
:100FA4001F0203F01F031343C5F89C30E0B204F0A2
:100FB400B4F910F1160F3DD0441CE7E7C5F898B01A
:100FC400D5F8A020013B23F01F0302F01F021343B6
:100FD400CA453146E0B2C5F8A030E8D004F09DF926
:100FE40010F1160F26D0C5F898B0D5F89C209DF8BE
:100FF40008300AF1FF3A62F304038DF80830D5F89B
:10100400A0309DF808205B0863F347128DF8082090
:10101400D6E900321344009323F01F035344A3EB97
:101024000903013023F01F036946C0B20393FFF79D
:1010340053FFBEE76FF01504204605B0BDE8F08FFE
:1010440000ED00E00522044BC3F89420BFF34F8F5A
:10105400BFF36F8F704700BF00ED00E0BFF35F8FF9
:101064000022024BC3F89420704700BF00ED00E05B
:1010740010B5034C2278FFF741FF207010BD00BF6C
:10108400875E00202DE9F74F294D8A4606464FF02A
:101094000008AB46274FD0451BDAD6F80490B9F1C7
:1010A400000F3FD031680846019104F02DF90199F1
:1010B400044609EB0100013804F026F984424FF09C
:1010C40014021D4B08D002FB08F36FF015024BF815
:1010D400032003B0BDE8F08F14F1160F2C60F8D094
:1010E4001978A142F5DD02FB08B0C7F89840C7F8AB
:1010F4009840D7F89C4000F10801007B64F3040099
:101104000871D7F8A0000C79400860F347140C71FB
:10111400D7F89C1021F01F016960D7F8A01021F0C6
:101124001F01296108F1010814350C36B3E700BF2B
:101134008808002000ED00E0875E0020F0B54149FA
:10114400414CD1F890302568C3F307239D4287B002
:1011540075D80020FFF782FF3C4BC1F8C0308542B0
:1011640016D13B4C01A82570FFF744FA002506462A
:10117400384FAE4213D1002023783249D1F8902061
:10118400C2F30722934254DBFFF75CFF00202FE0F9
:10119400616801EB0011FFF785FE0130DFE701997B
:1011A400280101EB0513DA683A40B2F5001F21D09B
:1011B400B2F5800F2BD0B2F5801F38D15A689B68E6
:1011C4000958013B22F01F0003440120844623F008
:1011D4001F0340EA4C10CDE902218DF8100002A94A
:1011E40020780593FFF778FE00281DDA6FF01500CC
:1011F40007B0F0BD5A689B680958013B22F01F00F4
:1012040003444FF0020C012023F01F03E1E75A6866
:101214009B680958013B22F01F0003444FF0000C67
:10122400062023F01F03D4E723780133237001350C
:101234009FE7C1F89830C1F8A00001339EE74FF052
:10124400FF30D5E700ED00E080620000AAFF440013
:10125400875E00200000F0FF08B50649064821F02B
:101264000701C1F1005202F5E02203F0B8FE0020AC
:1012740008BD00BF278905209C08002007B50DF193
:10128400070004F0E4F9114B98421CD14FF480623A
:101294000F4B1049C3F8B8254FF40062C3F83C253E
:1012A4009DF8070004F0C7F90B499DF8070004F006
:1012B400BDF901209DF80730984001F099F900200C
:1012C40003B05DF804FB6FF00B00F9E70000AD0B11
:1012D40000A002502CA0025028A10250054B03EBA1
:1012E4008000D0F8003223F0E04343F04053C0F8CC
:1012F4000032704700258450012208B50A4B0B497F
:10130400C3F8002502230020C1F8D036FFF7E6FF1A
:101314001046FFF7E3FFC1F80427C1F80429C1F818
:10132400002B002008BD00BF0010005000400050FA
:10133400052370B5144D154E2C780134B4FBF3F32A
:1013440003EB8303E41A04F05FF9114A137823B121
:1013540056F82430C01A072814D94FF05023D3F874
:10136400141141B10021C3F81411D3F814312C70B5
:101374000CB9012313702C7804F046F946F82400C4
:10138400012070BD0020FCE7895E0020A808002031
:10139400885E002048B1054B054A1B68B3FBF2F395
:1013A4005843044B43F001031847704740000020A2
:1013B40040420F00406200000149024803F0C5BEEC
:1013C400A8620000BC0800204FF47F032DE9F0411F
:1013D400D3F830210646072A0D46D3F8343120D1FC
:1013E400023B032B02D8124AD35CD3B14FF05024F2
:1013F4004FF0010800270520C4F81886C4F81476B5
:1014040004F012F94046C4F8148604F00DF9C4F847
:101414001476C4F8187630462B46BDE8F041002116
:1014240018474FF050230022C3F81426F3E700BFF7
:101434007A650000084B70B5C31A0D4607499B1026
:10144400044659434022064803F091FF2B460146C7
:101454002046BDE870401847EC080020B76DDBB6A5
:10146400C45F0000402373B50B4C0093041B0B4670
:101474000D460A49A41061430646094A094803F087
:10148400A2FF011E05DA30462B4602B0BDE87040CB
:10149400184702B070BD00BFEC080020B76DDBB682
:1014A40035540000C45F000010B5EFF3118420230D
:1014B40083F31288BFF36F8F074A136823F0020186
:1014C400DB07116002D4012004F074F984F311885D
:1014D400BFF36F8F10BD00BF8C0900202DE9F843C6
:1014E4000022012106460520FFF72CFC114801F0DB
:1014F40085F8114B984219D101F090F800244FF06F
:101504001C090C27DFF834803569414609FB045077
:1015140003F01BFE002807DB012307FB04551C44D2
:10152400042CAB67F0D10020BDE8F8836FF0040011
:10153400FAE700BF3D1600000000AD0BB4620000E6
:101544001FB500220123CDE902236B46084ACDF8DA
:1015540000D0CDF804D003F064FF002805DB4FF47D
:1015640080420023684602F0D9F905B05DF804FB17
:101574006B5400000C22104B014602FB0033002088
:1015840030B4D3E91C521867EFF31180202484F39C
:101594001288BFF36F8F9C6F04F0C00444F0020400
:1015A4009C6780F31188BFF36F8F1DB12B4630BC4D
:1015B4000248184730BC7047EC080020C45F0000A4
:1015C40010B4EFF31182202383F31288BFF36F8FDB
:1015D4001748016841F002040460C80707D482F385
:1015E4001188BFF36F8F012010BC01F02FB84FF0AA
:1015F4005021D1F80C04D1F80C14C907EFD5EFF33E
:10160400118083F31288BFF36F8F0A498B6F03F045
:10161400C00343F002038B6780F31188BFF36F8F1D
:1016240082F31188BFF36F8F002010BCFFF7A2BFB5
:101634008C090020EC080020062812D8DFE800F00E
:10164400040F1111110D0B00064B986F10F00700D9
:1016540007D1FFF78FBF0220FBE70320F9E7012042
:10166400F7E77047EC0800202DE9F0410122074616
:101674003649D1E8EF3FC1E8E02F0028F9D133B96A
:10168400334934484B60CB608A6003F071FD7B1EA4
:10169400012B2BD8012F07D14FF05023D3F81C3442
:1016A40003F00303022B21D004F0FAF90546F8B93C
:1016B400294B1B78E3B14FF0502302220646C3F8AE
:1016C40008234FF05024DFF89480D4F81824D4F879
:1016D4001834D20315D503F00303022B01D0012FD4
:1016E4000FD16DB386F31188BFF36F8FBDE8F0811E
:1016F400EFF31186202383F31288BFF36F8F012544
:10170400DFE7C5B1304603F0E3FDD4F81835DBB2AA
:10171400012BDAD1D4F80421002AD6D00022C4F84F
:101724000421D4F804210222C4F818252022C8F880
:101734008021A360C9E70021212002F0D7FBE4E760
:101744004FF050230222C3F80423CFE7E808002017
:10175400D8080020080900209C62002000E100E075
:10176400F0B5406801F01F04057B87B044EA4514D6
:101774000569002D63D0B2F5001F00F1100506D1F4
:101784002146284604F096F8002007B0F0BD002753
:10179400B2F5800F01AE0197776039D1B3F1007FC4
:1017A40014BF052304238DF804300023CDE904631A
:1017B4000393836823FA01F111F001011AD1B2F104
:1017C400A07F17D104F01F03620903F180032AD01C
:1017D400012A3AD11E4A52F82330DB070AD40DF10C
:1017E400030632462146284601F054FA194B984222
:1017F4001BD002962146284603AA01F007F9164B8E
:1018040098421FD101222146284601F0A5FABBE7E0
:10181400B3F1C06F05D0B3F1007F14BF01230223DD
:10182400C1E70323BFE70D4AD5E73146284601F057
:101834008DFA094B9842DCD06FF00B00A5E76FF0EE
:101844008500A2E76FF015009FE751F82330FFDE13
:10185400002884500400AD0B0000AD0B002584501B
:1018640038B545682B69B3B11035284601F05EFAE6
:10187400044680B90146284601F026FA084B9842EE
:101884000BD122462846074901F0FEF922460521DC
:101894000D20FFF757FA002038BD6FF00400FBE776
:1018A4000000AD0BAD1800004209034670B502D02C
:1018B400012A17D070BD0D4E326951680029F9D044
:1018C400012503F01F030C689D400029F2D08A68AB
:1018D4002A4002D030464B6898472CB123682146F1
:1018E4001C46F2E7024EE7E72346F8E7EC5F000008
:1018F400D85F00002DE9F04340F206354668D00673
:1019040048BF0320337B02EA050558BFC2F34010E9
:1019140087B001F01F07B5F5837F144647EA4317E4
:101924008DF8030043D00FD8062D18D007D8B5B1D1
:10193400022D3ED06FF0150007B0BDE8F083B5F579
:10194400807FF7D101250AE040F20222954232D08D
:10195400B5F5407F31D0B5F5007FEBD102252203E8
:101964002DD5012372688B409360326982BB07F0E6
:101974001F037F092AD0012F77D13E4A02EB83024D
:1019840084F48033D2F80012C3F30043C4F3404418
:1019940044EA430421F4706144EA800421F00F0115
:1019A40044EA05230B43C2F800320020C4E70725AC
:1019B400D5E70425D3E70525D1E70325CFE763035E
:1019C40041BF012372688B40D360CEE72A4AD5E732
:1019D4001036394630460DF1020201F05BF914F479
:1019E400403F80460CD13946304603F061FF234B1B
:1019F4009845DAD130469DF8021001F0A1F9D4E7F8
:101A04004FF0000901AB3946304603AACDE9043949
:101A1400CDE90199CDF80C9000F0F8FF174B9842EE
:101A240088D114F4003315D09DF8033084F4803445
:101A3400C4F300448DF80E3039464B46304603AAB1
:101A44008DF80C508DF80D4001F09CF80B4B98422A
:101A5400CDD06FE7CDE9043339460DF103033046A9
:101A640003AA039300F0D2FFF0E7803352F8233047
:101A7400FFDE00BF00288450002584500000AD0B19
:101A8400036803F01F025B09026004D0012B0348C2
:101A940018BF002070470248704700BF00288450D8
:101AA400002584502DE9F04F1546834640F2FF1877
:101AB400DFF88891DFF888A185B000EB81015945F2
:101AC40003D1002005B0BDE8F08FDBF80030C3F38C
:101AD400C322082AC3F3080400F2AA805B0C44451D
:101AE40008BF4FF0FF3419F80270222B00F2A380D4
:101AF400DFE803F012191F22252B22A1A1A1A13A8C
:101B040067A1A1A1A1A1A1A1A1A16A7F8285A1A18F
:101B1400A1888F9295989B00C5F80C45601C5DD1F7
:101B24000BF1040BCBE7C5F81445621CF8D0002672
:101B34005DE0C5F80845F1E7C5F81045F5E7631C15
:101B4400C5F80845ECD0002604E0661CC5F80C4531
:101B5400E6D0012603A80394FFF792FF0122039B1A
:101B640002FA03F3C36008E0C5F80845002FDCD18E
:101B7400631CD5D0002606273246DBF800300394D8
:101B840003F40040002818BF002203A818BF012650
:101B940001930092FFF774FF039C019B00EB840008
:101BA400D0F80042C3F3412C009A3B0243EA8C0371
:101BB400134304EA0A04234343EA4603C0F8003209
:101BC400AEE7C5F80C45D1E7C5F86045601CDBF805
:101BD4000030A5D0C3F30043002BBAD0012603A8DC
:101BE4000394FFF74DFF039B06FA03F38360324629
:101BF400C3E7C5F86445E9E7C5F86845E6E7C5F80D
:101C04006C45E3E7C5F82445621C89D0012600220F
:101C1400B3E7C5F8284581E7C5F83045F4E7C5F8CA
:101C24003445F1E7C5F83845EEE7C5F83C4575E7B6
:101C34006FF0150046E76FF0850043E7A1650000EB
:101C4400F0F0FCFF2DE9F74306464FF000080022B0
:101C540001210820FFF776F80820FFF743F877689A
:101C640035693C684146C4F800852E60D7F80C906D
:101C740001AA484603F047FC00283FDB019BD9F842
:101C8400002019791868FFF70DFF002836DB6B7AFE
:101C9400D6F810C0012B03D0032B2DD14FF0100820
:101CA400AB7A032B28D195F80BE0BEF1000F02D0DC
:101CB400BEF1010F20D12A7A012A22D0022A24D08F
:101CC400D2B910466B687168B3F5164F096800F015
:101CD400BA803AD8B3F5165F00F0B88020D8B3F5CF
:101CE400966F00F0B58012D8B3F5967F00F0B380FC
:101CF400B3F5167F00F0B2806FF0850003B0BDE845
:101D0400F0834FF480700E22DCE70020FBE7B3F58C
:101D1400166F00F0A680B3F5965FEDD15D4B43E0FE
:101D2400B3F5E14F00F0A08008D8B3F5615F00F08F
:101D34009D80B3F5964FDFD1574B35E047F6122916
:101D44004B45D9D14FF400032EE0B3F5613F00F0C9
:101D54008F8015D8B3F5963F00F08D800AD84DF6E4
:101D6400C0294B4500F08980B3F5614FC4D14FF4CD
:101D74006B0319E0B3F5E13FBED14FF0EB7313E011
:101D8400B3F5612F7CD009D8DFF810914B457AD098
:101D9400B3F5E12FB0D14FF0E86305E0DFF800912F
:101DA4004B45A9D14FF08053C1F82435736840EAFC
:101DB4000E001B6842EA08021043C3F86C050CF1DC
:101DC4000403D5E9010183E803007B68990712D570
:101DD40005F1180000F0FAFC324B984256D1287EE7
:101DE40004F10C0204F5907103F02AFC01202B7E0F
:101DF400984000F0FDFB0823C4F800353B7A53B942
:101E0400C4F81031D4F810316B69C4F834350123A7
:101E1400C4F8383523607B6800209A075CBF4FF410
:101E24008073C4F804337B68DB0644BF4FF480033B
:101E3400C4F804332B69C4F844350123C4F84805B5
:101E4400A360E3605AE74FF41D03ADE7164BABE71D
:101E54004FF49E23A8E74FF4A033A5E74FF41C33B7
:101E6400A2E74FF41D239FE7104B9DE7104B9BE720
:101E74004FF06C7398E70F4B96E74FF4650393E7C5
:101E84004FF0706390E74FF080638DE76FF00400CC
:101E940034E700BF00B0130000A04E0090D0030050
:101EA40040420F000000AD0B0050270000C0750039
:101EB40000F03A0000903A012DE9F04104460D4645
:101EC400076903F0EDFD4FF02008B0B92C4B1B78E7
:101ED4009BB16426606803F044FBF0B9012003F071
:101EE400A3FB013EF6D10021212001F0FFFFF0E722
:101EF40086F31188BFF36F8FF5E7EFF31186314650
:101F040088F31288BFF36F8F606803F02AFB80B9EF
:101F140086F31188BFF36F8FEFE7EFF31186314635
:101F240088F31288BFF36F8F606803F01AFB0028F0
:101F3400DED03B691D70626838691368C3F84405D4
:101F44000120C3F848050020C3F82001D3F820512C
:101F5400C3F858015268D3F85801D20608D50820AE
:101F640062681268C2F800054FF48002C3F80423C3
:101F740001229A6081F31188BFF36F8FBDE8F0816D
:101F84009C6200200123834070B5DC430B4AD2E8F5
:101F9400EF1F01EA0405C2E8E65F002EF7D14FF413
:101FA400803282400648C0F80823BFF35F8FBFF336
:101FB4006F8F0B4214BF0120002070BDAC090020BC
:101FC4000050015070B40E4922F07F46D1E900342C
:101FD400D01AC31844F10004C1E90034A6F5001373
:101FE400B3F5400F09D2074B1B681A0A1B069C194C
:101FF400054B42F10005C3E9004570BC02F0FAB894
:10200400B0010020B0090020B8010020D9B101239B
:102014000D4A8340D2E8EFCF4CEA030CC2E8E1CF8B
:102024000029F7D14FF48033084A8340C2F80433BF
:10203400074BD3E8AF3FC340DB0742BF4FF4001266
:10204400044BC3F800217047AC0900200050015034
:10205400A809002000E100E00D4B1868010A000601
:10206400BFF35F8F0B4BD3F80435181841F100010F
:10207400B3F5801F0AD2084BD3E90023904271EBD9
:10208400030303D210F1807041F10001704700BFD7
:10209400B009002000500150B80100202DE9F04F94
:1020A40085B016461F4604469DF840A0FFF76AFF18
:1020B4000190FFF7D1FFB04271EB070352D23B4BC3
:1020C400301A67EB0101984271F100014DD2384B8F
:1020D40003EB0413D3E902239F4208BF964258D06E
:1020E4004FF48038334908FA04F8204626F07F4B31
:1020F400C1F8488303F07CFA4FF00309584604F111
:102104005005AD00ADB205F1502504F5A87305F5F1
:1021140080350293029A20F07F4341F82230C1F8BF
:102124004483D1F80435244AC01A033820F07F4090
:1021340090422ED9286868B1D1F80435A3EB0B007E
:1021440020F07F40B0F5000F039322D9204603F01E
:102154004FFA039BBAF1000F07D109EB030009F111
:102164000109D7E7BAF1000F09D06FF01505204631
:102174000199FFF74BFF284605B0BDE8F08F012316
:102184000E4AA340D2E8EF0F1843C2E8E10F00293A
:10219400F8D107490E982301C8500F9B01EB041294
:1021A4000025C2E902675360E1E700BF0100800037
:1021B400A001002000500150FDFF7F00A80900206D
:1021C4007FB500254FF0FF304FF0FF31194C1A4B0B
:1021D4000226C4F80833C4F84833184BC4F8085529
:1021E400C3E902014FF480334FF40012C4F80433FE
:1021F400134B0121C4F804631520C3F880212A4637
:10220400FEF7A0FD1520FEF76DFD01230D4AA36026
:10221400236013600C4B0D4A009328460023CDE93C
:102224000155FFF73BFF3046FFF71EFA284604B07E
:1022340070BD00BF0050015003000F00A00100203A
:1022440000E100E0AC090020C91F0000FFFF7F008F
:102254002DE9F7432E4BD3F8042390070BD5D3F87D
:10226400042142B10022C3F804212A4AD3F80431DC
:10227400136801331360264AD2F80433D90326D5F0
:10228400254BD3E8EF1F21F00100C3E8E40F002C35
:10229400F7D1CB0702D4D2F84031C3B100251C4C8E
:1022A400C4F84051D4F84031FFF7D6FEEFF3118261
:1022B400202383F31288BFF36F8F184BD3E902678F
:1022C400B042B94106D282F31188BFF36F8F03B0D5
:1022D400BDE8F0834FF0FF38D3E900104FF0FF3929
:1022E4001D60C3E902894FF48033C4F84833C4F84D
:1022F4004051D4F8403182F31188BFF36F8F002925
:10230400E5D0009032463B4628468847DFE700BFC9
:1023140000500150B0090020A8090020A0010020AD
:1023240030B5431C124C85B005D08442A8BF044686
:10233400012CB8BF0124FFF78FFE0E4B0C4DD3E9DF
:102344000013401AB0F5000F0FD22218AA4228BF7A
:102354002A46002052180849CDE90100009143F1B2
:102364000003FFF79BFE05B030BD2A46F1E700BF2E
:10237400FFFF7F00B0010020C91F000008B5FFF770
:102384006BFE024B1B68C01A08BD00BFB0010020E1
:102394004FF47F03D3F83021D3F83431072A05D121
:1023A400023B032B02D8024AD05C704700207047DE
:1023B400BC65000008B5FFF7EBFF58B1644BD3F8D8
:1023C400202A3AB90D21C3F8201A0121C3F81C1997
:1023D400C3F81C290022D30003F57F03D3F80013AC
:1023E400013107D0D3F800130132D3F80433202A83
:1023F4000B60F0D1FFF7CCFF002840F0A080FFF77E
:10240400C7FF40B1534B544AC3F830254FF0502313
:102414000122C3F858254FF47F03D3F83021D3F8B1
:102424003431072A09D1023B032B06D84B4AD35C2B
:102434001BB100224A4BC3F84C25FFF7A9FF50B14A
:102444004FF05023D3F80024D10742BF0022C3F831
:102454001421C3F818214FF47F03D3F83021D3F8A3
:102464003431072A09D14FF05023D3F80024D2077E
:1024740044BF6FF00102C3F80024FFF789FF18B1CD
:102484006522334BC3F80C274FF47F03D3F8302174
:10249400D3F83431072A16D1314BD3F82034002B2A
:1024A40011DA4FF050230322C3F8182501229A6051
:1024B400D3F80421002AFBD00022C3F8042101220E
:1024C400DA60C3F818254FF47F03D3F83021D3F82A
:1024D4003431072A23D1023B032B02D8214AD35C8F
:1024E400EBB17E221A4B1B49C3F80C27C3F83C29D5
:1024F4007F231D4AC2F818310023C1F8043EC1F8F5
:10250400083E01F54821C1F81031C2F82431C2F85F
:102514002C3102F5FF1202F58052C2F8A032134AA0
:10252400D2F88C3043F44063C2F88C30104A114B1B
:102534001168C3F84415D269C3F84C2508BD292293
:10254400034BC3F80C270322C3F83C2757E700BF0B
:1025540000400050009003504400EFBEB8650000F6
:1025640000200350B46500000020005000ED00E09E
:102574000080FF000060005030B50468ACB1B4FACC
:1025840084F30122C3F11F03DBB29A4024EA02025E
:10259400D0E8EF5FA54204D1C0E8EC2FBCF1000FF6
:1025A400F6D1EAD102480B7030BD0248FCE700BF07
:1025B4000000AD0B0200AD0B10B50368CB40DB0788
:1025C40010D401238B40026843EA0201D0E8EF4FA4
:1025D400944204D1C0E8EC1FBCF1000FF6D1F2D153
:1025E400014810BD0148FCE70000AD0B0400AD0B31
:1025F400014BC3F80405704700700150044B1A796D
:1026040022B9012218601A710248704702487047C3
:10261400B40900200000AD0B0C00AD0B08B50A4B4B
:102624001B6833B10520FEF77FFB10B90520FEF7C8
:1026340059FB4FF050230122C3F81825C3F8142581
:10264400C3F8802508BD00BFB409002010B50328D5
:1026540045D8DFE800F01802554F00224FF480738C
:102664000121002003F1502318601C68012402F1A9
:1026740050221460284A1268002A47D04FF0502391
:10268400C3F804132BE04FF05023D3F81814D3F8F5
:102694001824C90312D502F00303022B05D0012B21
:1026A40002D0002002F0D5FF01234FF05022022176
:1026B400C2F8183508224FF48273D2E7D3F81424F1
:1026C400D207F1D5D3F81C2402F00302013A012AFF
:1026D400E7D8114A12681AB10222C3F8042310BDC4
:1026E400D3F80421002AFBD00022C3F80421D3F834
:1026F4000431F4E718224FF490734FF48071B0E77B
:1027040020224FF492734FF40071AAE71A68002A4A
:10271400FCD018601B68E2E7B40900204FF0502396
:1027240010B5D3F8002152B10020C3F80001D3F84A
:1027340000210122C3F80823234B1B6898474FF05C
:102744005023D3F8042182B10022C3F80421D3F822
:102754000421D3F81824D3F81824022102F0030228
:10276400012A28D1C3F818159A604FF05023D3F8E2
:10277400202162B10022C3F82021D3F820214FF494
:102784008072C3F80823104B05201B6898474FF04C
:102794005023D3F82421AAB10022C3F82421D3F86A
:1027A40024214FF40072C3F80823074B0620BDE828
:1027B40010401B681847C3F80813034B01201B681B
:1027C4009847D2E710BD00BFB40900200146014874
:1027D400FFF7D2BE44000020036803F01F025B0928
:1027E400026004D0012B034818BF00207047024840
:1027F400704700BF0028845000258450034A4309D1
:10280400D35C00F01F001844C0B27047C0650000DC
:1028140070B50546FFF7F2FF0C4C083034F8103061
:102824000E46DA0508D5C3F3432304EBC302284656
:1028340054F8333052689847A3682BB13146284680
:10284400E268BDE87040184770BD00BF4800002032
:1028540008B5FFF7D3FF034B083033F81000400BE3
:1028640008BD00BF4800002008B5FFF7C7FF034BB1
:10287400083033F81000C0F3400008BD48000020C1
:1028840008B5FFF7BBFF034B083033F81000C0F363
:10289400401008BD48000020034611F0010010B5A7
:1028A400CCB20BD1A207C4F340000DD5074A106A7D
:1028B40058601062003818BF012005E004490A6A14
:1028C4001A600A62002AEDD010BD00BF00288450AF
:1028D4000025845010B5FFF791FF124A083032F8F2
:1028E4001030D9051CD5C3F3432123F4F85322F83F
:1028F4001030002002F10E0434F8023F13F4807FFC
:1029040003D0C3F3432399420AD001303028F3D1D2
:10291400002342F831300448BDE81040FFF74CBEB4
:1029240010BD00BF48000020C0000020F0B50546DF
:1029340000200126044607468C420BD1114BD3F8E4
:102944007C2132B10022C3F87C21D3F87C3140F0E1
:102954000040F0BDE3B29B0003F580729B0806FAC9
:1029640003F31D420BD002F1A04202F55042D2F80B
:1029740000C0BCF1000F02D0176012681843013484
:10298400DAE700BF00D00050F7B506460846FFF767
:1029940035FF1A4F00F1080537F815300C46DB07F0
:1029A4002AD5304602F060FF2046FFF769FF58B190
:1029B4002046FFF74DFF0022316800B201EB80038F
:1029C400C3F81025C3F810252046FFF783FF002322
:1029D40001A827F815300194FFF7FEFE019B00EBD8
:1029E4008300D0F80022064B134043F00203C0F8E2
:1029F4000032044803B0F0BD0348FBE74800002060
:102A0400F0F0FCFF0000AD0B0400AD0B2DE9F0432A
:102A14001646804685B00846FFF7F0FE0D4631683D
:102A2400044609B32846FFF71FFF18B12846FFF7ED
:102A340027FF10BB00230DF10F02CDE900338DF801
:102A44000E308DF80F3028460B460DF10E0102F0C2
:102A5400B3FE484A04F1080132F8113023F00203AE
:102A640043F0010322F8113073687BB328461F78C2
:102A74005968FFF7F9FE10B1E9B13F4829E03D4A32
:102A840004F1080032F8103023F02003DB04DB0CDF
:102A940022F8103079B1032FEFD87168D1F804E02F
:102AA400D8F800109EF800C001EB8C01A7B9C1F85A
:102AB4001075C1F810752F4A04F1080132F811306D
:102AC40023F01C0343EA870322F81130B3683BBBAD
:102AD4002A4805B0BDE8F083D1F810E543EA4C3349
:102AE4002EF0030EC1F810E5D8F8001043F02003CF
:102AF40001EB8C0EDEF8101522F8103021F44F3162
:102B040021F44071CEF810152902DEF8108501F485
:102B14007C5141EA074141EA0801CEF81015CAE7A1
:102B24002846D3E90067FFF7D5FE002ED0D0114D1B
:102B3400D5E90023964203D19F4201D1002209E046
:102B44000F480DF10F01FFF717FD0C4B9842C0D150
:102B54009DF80F2005EBC20308345F6035F814308C
:102B640045F8326043EA422343F4807325F8143075
:102B7400AEE700BF480000200400AD0B0000AD0B21
:102B8400C00000202DE9F0430C46804685B0204665
:102B940011461D46FFF732FE064629B32046FFF7CD
:102BA40063FE18B92046FFF76BFE18BB334F06F1DE
:102BB400080937F8193013F01C0F02D04B78012B99
:102BC40018D001238DF80F3000234A1CCDE90013DF
:102BD40020468B1C0DF10F0102F0EEFD37F8193081
:102BE40043F0030327F81930002D44D02046FFF7A3
:102BF4003BFE18B9224805B0BDE8F083002295F8E1
:102C040000C0D8F800301D4F03EB8C03C3F8102527
:102C1400C3F8102506F1080237F812104FEA8C0E9B
:102C240021F02001C904C90C27F812106E7816B3DC
:102C3400D8F80000AD787044D0F81035360423F489
:102C4400991323F4F853C0F81035230203F47C538A
:102C540006F440362D05D0F810E5334305F480150D
:102C64002B4341EA4C3143EA0E0341F02001C0F802
:102C7400103527F812100348BDE700BF48000020B4
:102C84000400AD0B0000AD0B014BC3E90212704709
:102C94004800002010B508461446FFF7F1FD50B176
:102CA4000846FFF7ABFD054B083033F810300448F5
:102CB4005B0B237010BD0348FCE700BF48000020F5
:102CC4000000AD0B0400AD0B70B5154D064695F82C
:102CD40080401CBB2146602205F1100003F0C3F8BC
:102CE400214630682E6F8E420ED10023C0F87C310D
:102CF400D0F87C3140F30730FDF7F4FF0123094895
:102D040085F88030AB6770BDCBB29B0003F5807251
:102D14007C2B04BF845083580131E4E70248F2E776
:102D2400480000200000AD0B0C00AD0B034B93F8E2
:102D34008000003818BF0120704700BF4800002001
:102D44000148FFF739BC00BFBC0000200148FFF771
:102D540013BC00BFBC00002073B503681646D3F84B
:102D640004230546002AA8BF4FF000420846A8BF26
:102D7400C3F804230C46FFF783FD00B30846FFF7AE
:102D840073FD0146D8B92046FFF762FD04B2A400E2
:102D94000346286804F580728150296882582144CA
:102DA400D1F8102542F00102C1F810252EB10122FC
:102DB400296802FA03F3C1F8043302B070BD204657
:102DC400FFF71CFD0E4B083033F81030C3F38203B9
:102DD400042B11D0052B11D001A80194FFF7FCFCA2
:102DE400019A0369D34003F00103991C204602B001
:102DF400BDE8704002F029BD0321F7E70221F5E7A1
:102E0400480000202DE9F04F684BDFF8A481D3F887
:102E14000403D8F87010C0B289B040F00040FFF746
:102E240085FD051E2FDAC24600235AF87C1F06A82A
:102E3400CDE90633FFF730FD4FF0000B5D4B0DF18C
:102E440018090193019A12F8013B0192DA081AF861
:102E5400022003F0070322FA03F3DA071CD409F172
:102E64000409BBF1000F14D0D8F870104FF00040E3
:102E7400FFF75CFDD8F87C1006A8FFF70DFD0028CD
:102E8400DAD125F000450124002D76D109B0BDE842
:102E9400F08F4FF0010BD5E7474B5B440293D9F811
:102EA40000100029DBD091FAA1F1B1FA81F1029B63
:102EB4001C7841EA44142046FFF7A0FC083038F897
:102EC4001070C808BB080393012319F8002001F00F
:102ED400070103FA01F122EA010209F8002005A81A
:102EE4000594FFF779FC059A039B803250F8222061
:102EF400C7F382065B073746C2F3014222D5204658
:102F04003946D6B2FFF784FC05A80594FFF764FCA4
:102F1400059B803350F82330C3F301439E4207D10D
:102F24000021204602F091FC3146204602F08DFC3F
:102F340005A80594FFF750FC0122059B02FA03F350
:102F44000362ACE7022A0CD10321204602F07DFC87
:102F540006F00503012BEBD139462046FFF758FC58
:102F6400E6E702212046039202F06FFC032EF3D021
:102F7400039A032ADCD1022EEDE795FAA5F3B3FAFE
:102F840083F304FA03F29B0003F1A04303F55043D7
:102F9400D3F81005D3F81015C0F30520C1F301418F
:102FA40025EA0205FFF734FC6EE700BF00D00050AD
:102FB40048000020D0650000D0650000036803F0DD
:102FC4001F025B09026004D0012B034818BF0020D4
:102FD40070470248704700BF002884500025845081
:102FE4002DE9F341437D01462BBB436801A80193BE
:102FF400FFF7E4FF0123019A2F4C9340C3604B6811
:1030040001A80193FFF7DAFF019B00EB8300D0F8DE
:103014000032234043F00303C0F800328B6801A858
:103024000193FFF7CBFF019B00EB8300D0F8003244
:103034002340C0F800328B7D33B9D1E901021F4B24
:10304400C3F84005C3F844254B780A785B00D1F8EF
:103054000CE091F810C04F7C91F814808E7DD1E97A
:103064000150164CC97C03F0020302F00102134321
:10307400C4F82015C4F84C85C4F804E5C4F8083530
:10308400C4F818C5C4F81C751EB9C4F84055C4F872
:1030940044050023C4F80031D4F800212620C4F8E4
:1030A4000431D4F80431FDF71DFE0323C4F80433BE
:1030B40002B0BDE8F08100BFF0F0FCFF00600250F8
:1030C40010B50D4C227C9AB9C4E9012262822160B8
:1030D400627448B1427D6275027C502A0AD8437CEE
:1030E400502B07D8FFF77CFF01230448237410BD3D
:1030F4000348FCE70348FAE7BC0900200000AD0BD5
:103104000C00AD0B0400AD0B084B5A7C22B15B7C68
:10311400012B09D00648704702225A7401221A75FD
:103124004022044BC3F8042103487047BC09002023
:103134000B00AD0B00E100E00000AD0B70B51D4CC1
:103144000646237C0D4673B3637C032B2DD070B3EA
:103154000B042CD42620FDF7D3FD627CA37C022A29
:1031640016BFDB43002303F0010304EB8302516821
:10317400B9B904EB43039D810F4B5660C3F86065F6
:10318400C3F86455227C022A05D00222227401224B
:10319400C3F800251A60094C2620FDF7A3FD20463C
:1031A40070BD074CF8E7074CF9E7054CF7E7064C08
:1031B400F5E700BFBC090020006002500000AD0B21
:1031C4000B00AD0B0500AD0B0400AD0B0C4B597C93
:1031D4000129CAB20BD05A7C12B15A7C022A0CD1F2
:1031E40000220849C1F800255A7407487047032192
:1031F4001A745974034B5A60F7E70448704700BFC8
:10320400BC090020006002500000AD0B0B00AD0BA8
:103214001FB5404B404CD3F80021002A43D0002274
:10322400C3F80021D3F80011D3F8041119B1C3F87D
:103234000421D3F80431A37CDA4302F0010204EB45
:103244008201496811B9617C022951D1607C002155
:1032540002280DBF012304EB83035868637418BF6D
:1032640059604FF001038DF80C10E1740EBF029108
:103274000290A2748DF80430236801A89847637CF7
:10328400022B01D101236374237D53B101238DF8F3
:103294000430002301A802938DF80C3023752368B1
:1032A400984704B010BDD3F804110029ECD0C3F83A
:1032B4000421D3F80411C3F80025A37C627404EB41
:1032C400830359688DF80C208DF80420D9B9A37CA8
:1032D400DB4303F0010304EB83035A682AB102922F
:1032E400002201A85A60236898470023A374CBE7FF
:1032F400E37C002BC3D18DF80430029301238DF8B5
:103304000C30E374B8E75A600291236801A8984727
:10331400DDE700BF00600250BC09002008B5144B73
:10332400A8220021184602F09EFD032211490261E1
:103334004261114A8161C2614FF4806202620022DB
:1033440082624262C26201660C49034641661021F0
:1033540081660267C2664267BFF35F8F084911F84E
:10336400010D98540132102AF9D1BFF35F8F08BDC3
:10337400D4090020D26500009C5E00208C5E0020F1
:10338400EB650000F8B5182700FB0775124B0E46D5
:103394001D4407FB0033DB6A1446012B0AD0022BC1
:1033A40014D023B9284602F087FA844208D90024AD
:1033B4002046F8BD284602F07FFA844228BF04461E
:1033C40022463146284602F080FAF1E72846BDE855
:1033D400F84002F097BA00BFD4090020F8B50B4BAF
:1033E40004461B780D4616460BB9FFF797FFEFF31B
:1033F40011874FF0200181F3118832462946204677
:10340400FFF7C0FF87F31188F8BD00BFD40900207F
:103414002DE9F041154C1E4623780546884617468B
:103424000BB9FFF77BFF022D1DD8EFF3118C4FF082
:10343400200181F3118865B1182005FB000344F8CD
:103444000380E2180023576000FB05421662936272
:103454005362182303FB0544069BE3628CF3118833
:103464000020BDE8F0814FF0FF30FAE7D4090020D6
:1034740038B5EFF31185202383F31288BFF36F8FE0
:10348400064B9C6802F08AFA85F31188BFF36F8FAC
:103494002046BDE83840FDF7A7BB00BF7C0A0020EA
:1034A40038B5094B53F82040013053F82050A54259
:1034B40000D838BD636823B1204602F072FA08349C
:1034C400F5E723689847FAE790630000012270B596
:1034D400294B032086B01A70FFF7E2FFFDF790F83E
:1034E4000420FFF7DDFF254C254D2646AE4204F1AE
:1034F400300410D300F03CFC204C224EAC4226D3C6
:1035040000F04AFCFCF772FE1F4A137B23F0010310
:10351400137306B070BD54F80C3C059354F8103C7A
:10352400049354F8143C039354F8183C029354F84D
:103534001C3C019354F8203C009354E90A2354E9B9
:103544000C0100F011FA54F8303C5E65CDE7D4E983
:103554000A23B3F1FF3F08BFB2F1FF3F05D052EA9F
:103564000301206803D102F0A1FA3034C6E73146E2
:10357400183000F0C5FDF8E79C6200203C620000B2
:103584003C620000BD5B00004002002008B5034817
:10359400034A0021121A02F01CFA08BDA0010020FF
:1035A400A06200200023012270B586B0CDE9042377
:1035B4000F220193CDE9023214234FF4A0720E4D71
:1035C4000E4E03FB00550E4906EBC016044602FBE3
:1035D40000110C4B3046009500F0C6F9737B2C7437
:1035E40023F004037373084B013403EBC423EE602C
:1035F4006B6006B070BD00BF7C0A0020C0010020D3
:10360400A06A0020715A0000A0620020BFB500200B
:10361400FFF746FF2D4B03F5006282F3088883F31E
:103624000A880024E0232A4D2A4E85F82230EC77BC
:103634002C766C76AC7685F820406B6A264F43F482
:10364400E0236B6285F82340FDF750FAFDF7EAFBAF
:103654004FF0FF33AB62EB62FDF770FDFDF706FC44
:1036640040F201131D4D2846AB81C5E9184400F012
:1036740049FEB56002F084FB0120FFF711FF022030
:10368400174DFFF70DFF00F0A7FB164B756105936F
:10369400012315494FF48052CDE9034328463B46A4
:1036A400CDE90144009400F05FF906466A7B2846A0
:1036B40022F004026A7302F035FA2046FFF772FF23
:1036C4003A4631462846FDF78BFB00BFA062002036
:1036D40000ED00E07C0A0020D1340000C00200208C
:1036E40040020020EC650000E06B0020002038B5AB
:1036F400054C064DAC4200D338BD204602F06DF9AE
:103704000028F9DB1C34F5E73C0100203C010020D3
:1037140073B50C46EFF31181202585F31288BFF3AE
:103724006F8FC5685DB125602B68C3608369013301
:103734008361002081F31188BFF36F8F11E052EA97
:10374400030603D16FF00B002560F3E7CDE90023F6
:103754000246083000F058FA18B9034B9B685B69BD
:10376400236002B070BD00BF7C0A00202DE9F34144
:10377400044617461E46EFF31188202383F312886C
:10378400BFF36F8FC368334A7BB180689168884206
:1037940019D057EA060318D188F31188BFF36F8F45
:1037A4006FF00F0002B0BDE8F081916891F90E103E
:1037B4000133E36093682161A36088F31188BFF348
:1037C4006F8F0020EEE72169F2E791F90E1090F96E
:1037D4000E306FF07E029942A8BF19469142B8BFDD
:1037E40011468B422DDD02F04CF905462246414636
:1037F400CDE90076184800F007FA0028E1D0EFF38D
:103804001186202383F31288BFF36F8FA068D0B191
:10381400236821699C420AD04BB193F90E30994236
:10382400A8BF19466FF07E039942B8BF194602F04B
:1038340028F940B13146084800F056FA6FF00A0002
:10384400B0E70025D2E7002DF4D186F31188BFF349
:103854006F8FF3E77C0A00209D62002038B58368EF
:10386400044663B3194A926893422BD1C368012B6F
:1038740003D9013BC360002038BDEFF31185202339
:1038840083F31288BFF36F8F0169806802F0F9F83F
:10389400204602F095F9A06058B190F90E202261FB
:1038A4000022826702F03EF92946094800F01CFA1A
:1038B400E1E7E06085F31188BFF36F8FDBE76FF01A
:1038C4001500D9E74FF0FF30D6E700BF7C0A00208F
:1038D4009D62002038B50446EFF31185202383F35D
:1038E4001288BFF36F8F02F06BF948B10022826730
:1038F40002F018F92946BDE83840074800F0F4B949
:10390400D4E902329A4218BF0133A36085F31188C7
:10391400BFF36F8F38BD00BF9D62002013B5EFF376
:103924001181202484F31288BFF36F8F846844B11B
:10393400013C846081F31188BFF36F8F002002B0D3
:1039440010BD52EA030406D181F31188BFF36F8FCF
:103954006FF00F00F3E7CDE900230246014800F0C1
:1039640053F9ECE79D6200202DE9F043984685B0B9
:1039740000F15803C0E91633109B00260373042397
:10398400073222F0070543730F9B01EB05090F462D
:1039940083734946C0E906668660C6730446FCF72D
:1039A4003FFF0E9B073020F00700A066C4E918759E
:1039B40002930D9BA9EB000901930C9B4A460093CB
:1039C400394643462046FDF7EFF9054B66659B688B
:1039D40003B1DB6E4846E36605B0BDE8F08300BF83
:1039E4007C0A002038B50D4D2B4653F8184F9C42E5
:1039F40000D004B9EC68AB6838B95A7BD20604D15C
:103A0400A26912B9DA897F2A05D89C4202D02046DD
:103A140000F0BEFA23466B6138BD00BF7C0A00206B
:103A240008B590F90D200146002A437B04DA03F01F
:103A34007F03437302F03CF8044B9868431A5842DE
:103A44005841BDE80840FFF7CDBF00BF7C0A002005
:103A540070B490F90D30427B002B29DBD30627D1BB
:103A640083692BBB134962F07F0242730A4652F802
:103A7400184F944218BF2346CC6923B9C0E90024E7
:103A84002060C8610CE090F90E5093F90E60B542C5
:103A94000AD0AE4208DD5A68C0E9003210605860AE
:103AA400002070BCFFF79EBF9C42E7D01B68E4E790
:103AB40070BC70477C0A0020002A2DE9F0410E46B4
:103AC4000CBF10210821427B044611420FD141EA68
:103AD4000203D20918D1437308291BD00120FFF730
:103AE40081FFBFF35F8F637B23F060036373274B16
:103AF4009B68A34243D1EFF30583002B3FD13046AB
:103B0400BDE8F041FDF786B803F07F03437301F08D
:103B1400CFFFE1E7A36813B1204601F0D1FF04F120
:103B2400180002F0B1F84FF0000804F15807A56D31
:103B3400BD4200D0B5B9154FBB689C42CED1EFF35E
:103B44000583002BCAD00120FFF74CFF40F201137C
:103B54000F4DAB8100232846C5E9183300F0D2FB92
:103B6400BD60BEE7284601F0ABFF05F1180002F086
:103B74008BF82846C5F87880FFF76AFFD7E786F305
:103B84001188BFF36F8FBDE8F08100BF7C0A00206D
:103B9400C002002070B590F90D200146002A437B35
:103BA40004DA03F07F03437301F082FF154A4B7B71
:103BB400104663F07F034B7350F8183FD469834277
:103BC40008BF002323B9C1E900042160D1610CE0DE
:103BD40091F90E5093F90E60B5420ED0AE420CDD51
:103BE4005868C1E90030016059609068BDE87040D0
:103BF400431A58425841FFF7F5BE9C42E3D01B6874
:103C0400E0E700BF7C0A0020F8B5124B0C46DDE962
:103C1400067611469868104A1060EFF3118220224C
:103C240082F31288BFF36F8F9D68284601F052FF1C
:103C3400B6F1FF3F08BFB7F1FF3F06D03A4633461F
:103C4400064905F1180000F05BFA2046BDE8F8408B
:103C5400FCF7E0BF7C0A00209C0A0020BD5B00004A
:103C6400F8B50446EFF31186202383F31288BFF3DB
:103C74006F8F437B49B2DA0619D18569BDB903F068
:103C84007F03437301F014FF437B164A63F07F0301
:103C940043731346817353F8180F984218BF0546AF
:103CA400D0695DB9C4E900300460D46111E000203A
:103CB400A17386F31188BFF36F8FF8BD95F90E7069
:103CC400B9420BD08F4209DD6B68C4E900531C6014
:103CD4006C600120FFF786FE0120EAE7A842E1D0EC
:103CE4002D68DEE77C0A002049B9EFF3058030B97E
:103CF400054B5A699B689A4201D0FCF78BBF81F34C
:103D04001188BFF36F8F70477C0A002010B5EFF362
:103D14001184202282F31288BFF36F8F427B5107F4
:103D240004D484F31188BFF36F8F10BD22F0040212
:103D34004273FFF78DFE2146BDE810400148FFF7AE
:103D4400D3BF00BF9D620020034648B9EFF305824C
:103D540032B9064A51699268914201D0FCF75ABFC0
:103D640083F31188BFF36F8F704700BF7C0A002074
:103D7400EFF31181202383F31288BFF36F8F054B78
:103D84009A68D37B013BD37381F31188BFF36F8FA0
:103D9400704700BF7C0A002038B5EFF3118520245A
:103DA40084F31288BFF36F8F0A4B00209A68D37B89
:103DB4000133D373FFF716FE85F31188BFF36F8FBA
:103DC400EFF3118084F31288BFF36F8FBDE838409E
:103DD400FFF7BABF7C0A0020024B03F11802C3E9C3
:103DE400062270477C0A0020F8B5EFF311852023E2
:103DF40083F31288BFF36F8F19498868437B03F0FC
:103E04007F03437301F054FE08468B685A7B62F0CB
:103E14007F025A7350F8182FCC69824208BF0022DF
:103E240022B9C3E900042360CB610CE093F90E606E
:103E340092F90E70BE420ED0B7420CDD5168C3E950
:103E440000210B6053600120FFF7CCFD2846BDE83C
:103E5400F840FCF7DFBEA242E3D01268E0E700BFFF
:103E64007C0A002050EA01032DE9F04105460E4684
:103E740003D1FFF7B9FF00202BE0831C71F1FF335E
:103E840029DB01F016FF2C18EFF31188202383F3AC
:103E94001288BFF36F8F124F124BB8681860FFF788
:103EA400BFFDB86810492A463346183000F028F997
:103EB400BA684046537B43F010035373FCF7AAFEE1
:103EC40001F0F7FE201A63EB0303012873F10003EA
:103ED400D1DBBDE8F0816FF00104241AD4E700BF00
:103EE4007C0A00209C0A0020BD5B0000B1F1FF3F6A
:103EF40008BFB0F1FF3F08B506D10A4B986801F03E
:103F040020FE4FF0FF3008BDFFF7ACFF4FF47A718D
:103F140047F6FF730022C0FB0132D80B40EA42404F
:103F2400F1E700BF7C0A0020014B9868704700BF8E
:103F34007C0A00200122044BC01A044BC0105843D1
:103F4400034B1A54704700BF40030020ABAAAAAA2F
:103F54009D620020C3897F2B12D80A4B1B6863B172
:103F6400094B90F90E201B689A4209DB437BDB0660
:103F740006D1064BC31A18BF012303F00100704792
:103F84000023FAE7A40A0020A00A0020C0010020B0
:103F940070B50E4B0E4C1E7C054606EB460304EB37
:103FA400C304204601F070FE00220A4B28469A55AD
:103FB400FFF7D0FF48B1084B2046BDE870401A68AF
:103FC4000649013AD31700F09BB870BD7C0A002063
:103FD400400300209D620020A40A0020393F000015
:103FE40038B5EFF31185202383F31288BFF36F8F65
:103FF400104B114A9C681068A04206D1FFF7C8FF15
:1040040085F31188BFF36F8F38BD00211B7C1160CD
:104014000A4AD35C002BF3D02046FFF79BFF00280D
:10402400EED0637BDB0602D12046FFF7B3FD2046CA
:10403400E4E700BF7C0A00209C0A00209D62002067
:1040440008B50648064A0749121A01F0C4FCBDE83F
:104054000840054A0549064801F0BDBC000000209F
:10406400A0010020006600000000000000660000BF
:1040740000000020034B1B680BB9FEF77FB900203A
:10408400704700BFA80A002030B570B10B4B5B68C5
:1040940098420AD0036843B1D3E90421D0E9044526
:1040A400121941EB0501C3E90421D0E90032136080
:1040B4005A600023C0E9003330BD00BFCC000020AB
:1040C40010B50E4B1C689C4204D1FFF7D3FF6FF070
:1040D400004010BDFFF7CEFF002CF8D0D4E9043225
:1040E4001B1A62EBE072B3F1004F72F10001EEDAD9
:1040F400002AACBF18460020EBE700BFCC0000202C
:10410400B3F1FF3F08BFB2F1FF3FF8B504461D46C7
:1041140016465ED08160EFF31187202383F3128863
:10412400BFF36F8F013275F1FF3324DA6FF00103AF
:104134002D49D1E900209B1A4FF0FF3262EB0000B9
:104144009E1B60EB0500012E70F1000301DA0126CD
:104154000020C4E90460254ED6F800C07568B44553
:1041640008BF4FF0000CBCF1000F0DD1C4E900658D
:104174002C6074601CE0FFF77DFF013645F10005FB
:10418400361845EBE070E4E7DCE90420D4E90431B7
:10419400934271EB000E1DDAD21ADCF8043060EBA6
:1041A4000100CCE90420C4E900C31C60CCF804403D
:1041B4003368B34209D09C4207D10D4B1C6824B923
:1041C400FFF77EFF2146FEF7ABF887F31188BFF3B4
:1041D4006F8FF8BD9B1A61EB0001AC45C4E9043153
:1041E400C4D0DCF800C0BEE758030020CC00002097
:1041F400A80A00202DE9F84FEFF3118C202383F354
:104204001288BFF36F8FDFF8B0A0DFF8B0900024FE
:10421400C9F80000DAF800000025504508BF002066
:10422400274FE046D7E90021D9F8003078B3D0E928
:10423400046C4FEAE37EB3427EEB0C0B05DAF61A0C
:104244006CEB0E04C0E9046421E0B21841EBE671A2
:10425400C0E90445C7E90021FFF716FF88F3118878
:10426400BFF36F8F83689847EFF31188202383F39C
:104274001288BFF36F8FD9F80030DAF800009B1B67
:104284005045C446C9F80030CBD1D7E900210024F9
:104294009A1841EBE373C7E90023C9F80040FFF71C
:1042A4000FFF2146FEF73CF888F31188BFF36F8FA8
:1042B400BDE8F84FFFF794BECC000020A80A002008
:1042C4005803002010B5EFF31184202383F31288E0
:1042D400BFF36F8FFFF7CEFE0346054AD2E9000114
:1042E400181841EBE37184F31188BFF36F8F10BD8D
:1042F400580300200A460146014801F023BD00BFCF
:104304003C010020014BC366704700BF3C01002004
:1043140038B5064C064DAC4201D3002038BD2046CA
:10432400D4E9011201F02DFD1434F4E73C0100201E
:104334005001002010B50A4C23681BB101232360EF
:10434400002010BD00F0F4F80028F7D00138072849
:1043540003D8044B53F8200010BD034810BD00BF20
:10436400AC0A0020A8630000FE8FFFFFBFF34F8F4D
:104374000549064BCA6802F4E0621343CB60BFF3FD
:104384004F8F00BFFDE700BF00ED00E00400FA0519
:1043940030B44FF0FE3200250B4B0C4C0C494968ED
:1043A400C3F80024C3F80424C3F80824C3F80C2475
:1043B400C3F81024C3F81424C3F81824C3F81C2425
:1043C400C4F8005530BC0847005084500040845065
:1043D400D4000020024BD0E90012C3E90012704758
:1043E400D400002010B5044650B1636813F0685F30
:1043F40005D0064A934202D000236260236010BDB8
:10440400034B04485B689847EFE700BF2C5F5CA947
:10441400D4000020C8630000C8B143680D4A934229
:1044240013D013F0685F0ED0012350E8002F194613
:1044340040E8001C9CF0000FF7D1012AF5D0BFF32F
:104444005F8F0020704704487047044870476FF43A
:10445400E04070472C5F5CA9E98FFFFFEA8FFFFF04
:10446400034680B1426809498A420AD012F0685F63
:1044740005D0BFF35F8F002210461A6070470448CE
:104484007047044870476FF4E04070472C5F5CA9A4
:10449400E98FFFFFEA8FFFFF10B5044620B1002328
:1044A400034A2360626010BD0248FFF771FFF6E71C
:1044B4003A00003AF063000070B5194CD0F804C01B
:1044C4000668C4F804C0D0F808C0C068C4F808C0BE
:1044D400E06026600868134B134D18604868D5F8EF
:1044E40018215860886812F0685F9860C868096984
:1044F400D860196112D000230C4A05F58A70C5F8FA
:104504001431C5F8B831C5F81821C5F8BC21B04735
:10451400236805F5DC70BDE87040184770BD00BF26
:10452400F0000020DC000020C40A00202C5F5CA9FD
:1045340008B500F011F830B900F010F838B9054AA0
:10454400C2F80C0A08BD00F037F8032008BD0420A7
:1045540008BD00BF005084500020704710B51148BA
:1045640000F048F800B110BD0F4800F043F80028EF
:10457400F9D10E4C204600F03DF80028F3D10C4B45
:104584000C481C6000F036F801460028EBD100F01E
:104594002DF8044608B1204610BD00F03FF820462F
:1045A400FAE700BF300100202C0100202801002080
:1045B400200100202401002008B5084800F024F858
:1045C400074800F021F8074800F01EF8064800F0FC
:1045D4001BF8BDE8084000F00BB800BF3001002014
:1045E4002C01002028010020240100200020704715
:1045F400704700BF08B5034B02681B6810689847F2
:10460400002008BDF000002008B5034B02685B6879
:1046140010689847002008BDF000002070B5094CD0
:10462400094D2069AB68984718B1084B08485B6886
:1046340098470021074AEB6811602069BDE8704083
:10464400184700BFDC000020F0000020D400002048
:1046540014640000C00A00202DE9F04F43688DB0B7
:1046640015468046029383789A0740F10D81002411
:104674000E78002E00F00A81252E0BD04B1C0393DC
:10468400013441463046029B98470028C0F2F68028
:104694000399EDE74E788B1C252E0393F0D0002769
:1046A400B946BB46BBF11F0F38D8A6F12003102B27
:1046B4000AD8DFE803F02A090930090909210909A0
:1046C4000928092D09091F00A6F13003092B33D944
:1046D4002A2E37D11BF0400F55F8043B40F082805E
:1046E400002BA7BF4BF0200B9946C3F100094BF0F8
:1046F400280B01E04BF0010B039B13F8016B0393B0
:10470400002ECFD130E04BF0020B4BF0040BF3E75B
:104714004BF0080BF0E74BF0100BEDE7BBF17F0F0C
:1047240019D8A6F13003092BD2D81BF0400F03D0BF
:104734000A2101FB0737DFE70A214BF0200B01FBBD
:104744000939D9E72E2E06D11BF0400F40F09E8088
:104754004BF0400BD0E76C2E31D02BD8682E36D0DE
:104764006A2E3CD04C2E3AD0002F46F02003B8BF1E
:104774002BF04002A3F16501BCBF00271FFA82FBA6
:10478400022901D9612B2FD107350727DFF8ACA205
:1047940025F0070508351BF0080F66D00AEB070B58
:1047A40056465E4563D1A4EB0A0AA9EB070906EB5A
:1047B4000A026FE1742E9FD07A2E9DD0D4E71BF0AD
:1047C400800F18BF4BF4007B4BF0800B94E71BF475
:1047D400807F18BF4BF4007B4BF4807B8CE74BF459
:1047E400207B89E71F4687E7A6F16301122900F2BF
:1047F400F080DFE811F013004F00EE00EE00EE0051
:10480400EE004F00EE00EE00EE00EE00EE00FE00C3
:10481400E900EE00EE001B00EE00AF0055F8043B8B
:1048240001270DF1180A8DF81830B4E755F804ABD8
:10483400834BBAF1000F08BF9A461BF0400F504655
:1048440014BF39464FF0FF3101F015FB0746A2E7CC
:1048540041462020029B984700280FDB013EB742C7
:10486400F6D34C44B146A41B98E74E46F7E74146BD
:1048740016F8010B029B9847002892DA98F8023048
:1048840043F0040388F802304FF0FF3420460DB0A3
:10489400BDE8F08F1BF0800F34D01BF4007F2CD0C8
:1048A400073525F00705AA4669685AF8080B2BF066
:1048B40010050029ADB237DA404245F4806561EB5A
:1048C40041010DF1180B0A235A4601F0E0FAA0EB5E
:1048D4000B0301936B0662D5019B25F001019F42F6
:1048E40089B240F3A180002E00F0998015F01002E7
:1048F40040F09C80BB460D4623E0AA465AF8040BC0
:10490400C117D4E7AA461BF4807F5AF8041B01D1CF
:104914000846F5E71BF4007F19BF48B241F3C01104
:1049240008B241F3C031C2E750EA0103C9D11BF018
:10493400400FC6D0002FC4D12BF01102BB46019703
:1049440095B240F2064115EA01021CBF0BF1010BBE
:1049540000222CE02BF010020A231FFA82FB1BF02A
:10496400800C49D01BF4007115BF0735AA4625F009
:1049740007055AF8040B1EBFAA4669685AF8080BC3
:1049840050EA010545D12BF016051BF0400FADB2DE
:1049940042D0002F40D12BF01702019795B215F0A9
:1049A400100248D0019B002E42D103F1010B2907CC
:1049B4005AD4EB0706D5D9456FDDA9EB0B03019952
:1049C400CB465F185B4649E04BF0100B102378266A
:1049D400C5E7782B04D1C6F1780343F01003BEE792
:1049E40041462520029B98470028FFF647AF023432
:1049F40047E608230026B2E7AA461BF480715AF85A
:104A0400040BBDD01BF400711ABFC0B2614680B262
:104A1400B6E72BF0060295B20DF1180B54E725F01A
:104A24001105BB46ADB28CE70D46B8E73B460D46D3
:104A340003F1020BBBE7DDF804B082E7F865000080
:104A4400F1650000CDE9043241462020029B9847DD
:104A54000028FFF613AF049B059A01339945F1DC56
:104A6400A4EB0B019B46CC180AB341463020029BB1
:104A740098470028FFF602AF8EB901342744391B4A
:104A8400019B994224DC1D4655BB019AA9EB0B09F5
:104A9400554622441446914433E0019F92E7023480
:104AA40041463046029B98470028E7DAE6E640F2A2
:104AB40006410D42E2D015F0020F04F10104414613
:104AC40014BF2B20202015F4806F18BF2D20E9E798
:104AD40041463020029B013498470028CFDACDE6C6
:104AE40006AB013D4146585D029B98470028CBDA4E
:104AF400C4E641462020029B013498470028FFF673
:104B0400BDAEA9EB0403002BF3DCC1E5704738B557
:104B140005460C4604B938BD224629460120FEF755
:104B24005DFC0544241A0028F4D100212120FFF75C
:104B3400DDF9F1E7836800EBC101B3F5004F2CBF49
:104B440051F8220031F81200704700EBC10180686F
:104B5400B0F5004F2CBF41F8223021F812307047D5
:104B6400012208B5FFF7E6FFD04008BD836800EBDB
:104B7400C101B3F5004F08D34B681AB143F00103E8
:104B84004B60704723F00103FAE74B881AB143F0F6
:104B940001034B80704723F00103FAE7530001221D
:104BA400FFF7D3BF8368B3F5004F34BF0423082352
:104BB400C91A081AC0087047B0F5004F34BF04235F
:104BC4000823481C0833A0EBD300B0FA80F0C0F1EE
:104BD4001F0070472DE9F041174603220E46044694
:104BE400FFF7A8FF8642054607F104080AD101220F
:104BF400E368BA4023EA0203E360002344F8283060
:104C0400BDE8F081314602222046FFF793FF0646B5
:104C14002B4601460322204644F82850FFF795FF0F
:104C2400334629462046BDE8F0410222FFF78DBFF6
:104C340070B50D4686680446FFF792FFB6F5004F3F
:104C4400014601D3012809D03046FFF7B5FF2946B4
:104C540002462046BDE87040FFF7BCBF70BD2DE999
:104C6400F04705468068FFF7A7FF05EB800ADAF8EE
:104C7400109088460646B9F1000F1BD00327DAF8D6
:104C8400104028462146FFF76BFF404507D33246C4
:104C940021462846FFF79EFF2046BDE8F087032201
:104CA40021462846FFF746FF013FCAF8100001D00D
:104CB4008145E4D14FF0FF34EB680136B4401C4029
:104CC400EAD094FAA4F2B2FA82F2131D55F8234002
:104CD400DEE72DE9F04114460E460546FFF740FF96
:104CE400A4EB0608371B0744424631462846FFF723
:104CF40055FF3A4621462846FFF750FF4346002217
:104D040021462846FFF721FF21462846FFF728FFC2
:104D14003B46211800222846BDE8F041FFF715BFA5
:104D24002DE9F041164604460F46FFF719FF3146B8
:104D340005462046FFF714FF05442A463946204617
:104D4400FFF72CFF31462046FFF70AFF2B463118A8
:104D540000222046BDE8F041FFF7F7BE2DE9F041FF
:104D64000D4686680446FFF7FBFEB6F5004F014684
:104D740001D3012832D03046FFF71EFF04EB800137
:104D84000E6996B90122E36882401343E36002226C
:104D94000D612B4629462046FFF7D7FE03222946FC
:104DA4002046BDE8F041FFF7D0BE0222314620463E
:104DB400FFF7C0FE0746034629462046FFF7C5FE17
:104DC4000322334629462046FFF7BFFE39462B46C9
:104DD4002046FFF7BAFE02223146E1E7BDE8F08142
:104DE400F8B50C460546FFF7BBFE261801223146EE
:104DF4002846FFF79FFEC3070CD431462846FFF729
:104E040017FF21462846FFF7ABFE21462218284605
:104E1400FFF786FF002221462846FFF78BFE271A5C
:104E2400012239462846FFF785FE10EA020613D10F
:104E340039462846FFF7FCFE214632462846FFF74E
:104E440079FE2246211A2846FFF76AFF2146324698
:104E54002846FFF76FFE241A21462846BDE8F8408D
:104E6400FFF77CBF38B571B1056800222846FFF70B
:104E740099FE044601462846FFF778FE2146BDE820
:104E84003840FFF7ADBF38BD70B5066809B90020DA
:104E940070BDB368B3EBD10FF9D9B3F5004F34BF8C
:104EA40004230823CC1D1C44E40821463046FFF7A4
:104EB400D6FE05460028EAD001463046FFF750FEEC
:104EC400A04209D92C44294630462246FFF701FF67
:104ED40021463046FFF742FF304601222946FFF7BC
:104EE40045FEB368B3F5004F34BF0423082303EB36
:104EF400C5031844CCE72DE9F84306681446B268A4
:104F040001F1FF39B2F5004F34BF0423082319EA35
:104F140001090F460BD0494239408B424F4628BF06
:104F24000B46894654B900252846BDE8F8839942C2
:104F3400F8D82146BDE8F843FFF7A6BFB2EBD40F7B
:104F4400F1D9B2F5004F34BF04220822E11D3944DF
:104F5400C91A11443046C908FFF781FE804600286B
:104F6400E1D0B36809EBC005B3F5004F34BF0423A7
:104F740008231D4435447B1E1D44B5FBF7F57D43D2
:104F8400A5EB090529463046FFF70CFE2C440734EF
:104F940024F00704A41B804507464FEAE40408D222
:104FA400024641463046FFF794FE41463046FFF73D
:104FB400D5FE39463046FFF7D3FD3844844208D243
:104FC400394630462246FFF784FE21463046FFF735
:104FD400C5FE012239463046FFF7C8FDA4E7B2F505
:104FE400802F2CBF082304232DE9F0410026D21A78
:104FF4008C18CD1D25F0070524F00704641BE40874
:10500400056021462046AC60EE60FFF7D5FD421DE9
:105014009200013002F107074FEAD7073146A2F1A7
:10502400100205F11000B8BF324600F01CFF3A46EA
:1050340031462846FFF7B2FD33463246314628460C
:10504400FFF783FDA4EB0708284631460122FFF74A
:105054008DFD42463946FFF7A1FD3B4632463946AF
:105064002846FFF772FD21462846FFF797FD434681
:10507400324621462846FFF768FD2146284601228C
:10508400FFF774FD3946BDE8F041FFF767BE002025
:1050940070470FB407B504A951F8040B0191FBF74D
:1050A40069F903B05DF804EB04B07047038B13F0A7
:1050B400070305D10368002B0CBF002003207047B1
:1050C400022B05D1408BB0FA80F040098000704774
:1050D400012B05D10368002B0CBF0020052070476D
:1050E4000020704710B50C4600B111B96FF01500DF
:1050F40010BD081D00F093F80028F9D1A368032B14
:10510400F6D9F3E72DE9F0410D4607461946281D67
:1051140090461E4600F094F8044638B133464246A1
:1051240029463846A446BDE8F0416047BDE8F08111
:1051340010B4EFF31182202484F31288BFF36F8F2D
:10514400416110BC0121FBF747B938B50C4605464F
:1051540058B151B10B6843B14B6833B11C220021E3
:1051640000F081FE00202C6138BD6FF01500FBE7D4
:1051740070B505460E46FFF7B5FF041E14DBEFF3CA
:105184001182202383F31288BFF36F8F4FF6FF71D0
:105194006B8B2C8B8B4204F0070407D182F31188AC
:1051A400BFF36F8F6FF00A04204670BD022C0CD140
:1051B40001336B8382F31188BFF36F8F0023224680
:1051C40031462846FFF79EFFEEE7062C14D8DFE8A9
:1051D40004F004131313041A0400002333606B68EF
:1051E4003BB9C5E90066ACB902212846FBF7F4F8DF
:1051F400DAE71E606E60F6E782F31188BFF36F8F03
:105204006FF00404D0E782F31188BFF36F8F6FF05F
:105214008504C9E782F31188BFF36F8FC4E703469F
:1052240058B1426802F00302012A03D0032A04D1D0
:10523400026812B10020986070476FF01500704743
:105244004268034602F00302032A4FF00002816021
:1052540014BF104600685A6070477047FEE7012883
:1052640001D1EFF30583FEF703B901460068FFF7A8
:10527400F6BF08B5FBF7D0FABDE80840FBF7F0BA73
:1052840000210120FFF7EBBF036E83F30B88704707
:1052940061B662B680F31188BFF36F8F704708B5AB
:1052A40072B6002383F31188BFF36F8FFCF740F8C5
:1052B40050B1BFF34F8F30BF00BF00BF00BF00BF6E
:1052C40000BF00BF00BF00BF62B6BFF36F8F08BD51
:1052D40010B5044672B6002383F31188BFF36F8FB1
:1052E400FCF726F850B1BFF34F8F20BF00BF00BFBB
:1052F40000BF00BF00BF00BF00BF00BF84F3118820
:10530400BFF36F8F62B610BD40E800F313F4803F23
:10531400D8B208BF6FF01500704730B50C684B6801
:1053240085B00A894D890094013B24F01F0423446D
:1053340002F01F0242EA451223F01F0369468DF86A
:1053440008200393FBF7C8FD05B030BD0B464FF0B2
:1053540050220121C2F81416002118470C220369B7
:10536400C9B201FB0233986F00F00700704770B5B3
:10537400C9B20369EFF31185202484F31288BFF3C3
:105384006F8F0C2606FB0134A46F14F0C00408D000
:10539400A24206D085F31188BFF36F8F4FF0FF3020
:1053A40070BD012206FB01339A6785F31188BFF3B0
:1053B4006F8F436803EBC1035B6898470020EFE7F6
:1053C4008022FFF7D4BFF8B5069F0469C9B2EFF392
:1053D4001186202585F31288BFF36F8F0C2505FBFA
:1053E4000144A56F05F0070CBCF1010F0CD1A767B0
:1053F40086F31188BFF36F8FC4E91C23436853F805
:10540400313098470020F8BD05F0C005AF4286F35F
:105414001188BFF36F8F0CBF6FF077004FF0FF3030
:10542400F1E713B580240094FFF7CDFF02B010BD5F
:1054340010B41C240069CBB203FB0400002110BC8F
:1054440010470320FDF702B90220FDF7FFB8002042
:10545400FDF7FCB8032000F0ADB9022000F0AAB9B2
:10546400002000F0A7B91046FEF734BA43680020C4
:105474005B681B690B607047436802EA01005B6864
:1054840021EA020198600020D96070474368002037
:105494005B6899607047436800205B68D960704717
:1054A40043685A68536821EA03000B409060002067
:1054B400D360704710B503695868F8B1884219D1B0
:1054C4009C680868A142586000D198600020086078
:1054D4002AB15A680A609A68596002B99960002032
:1054E40010E0814206D10868206098688142EDD1BD
:1054F4009C60EBE7044600680028F2D1002AE8D15A
:105504006FF0150010BD30B543681360057A446828
:1055140004EBC504A34202D36FF0010030BD5C79F3
:105524008C4201D00833F0E70020F7E743681B689A
:10553400D3F88004C3F880047047436802691B6889
:10554400D3F8100150B10020526912780A70C3F8E0
:105554001001D3F8102101221A6070474FF0FF3078
:10556400704702680346D2F8580140B95B689B074C
:1055740006D4D2F82001003818BF0120704701205A
:10558400704742681368D3F80413C90517D5D3F8D4
:105594002011A1B1EFF31181202080F31288BFF311
:1055A4006F8FD3F8200130B10020C3F82001D3F865
:1055B40020010120D86081F31188BFF36F8F5268F6
:1055C400D20614D5EFF31182202181F31288BFF3A0
:1055D4006F8FD3F8581111B10021C3F800154FF49F
:1055E4008001C3F8081382F31188BFF36F8F7047EB
:1055F400002200F150039B009BB203F1502303F5FA
:1056040080331A601B68704708B5FCF725FD08BD98
:10561400FEF790BE08B5FBF701F8FBF7E7F8BDE825
:105624000840FEF787BE004700F0ACB940F00040E8
:10563400C1F88000704740F00040C1F88000704716
:1056440040F00040C1F88000C2F880007047FDF7C8
:10565400BDB873B503285DD8DFE800F0021826341E
:105664004FF050230222C3F808230122DA600022FB
:10567400C3F80421D3F80431002401238DF8073042
:10568400032847D8DFE800F02C4865824FF0502308
:105694000122C3F808235A600022C3F80021D3F87A
:1056A40000310DF10704E8E74FF050234FF4007286
:1056B400C3F8082301225A620022C3F82421D3F834
:1056C4002431D9E74FF050234FF48072C3F80823F4
:1056D4000122DA610022C3F82021D3F82031CBE77C
:1056E40042F210754FF05026D6F8183403F4803384
:1056F40034B97BB10120FFF797FF013DF4D109E0F4
:10570400D6F8182402F0030222701BB19DF807009A
:105714000128F0D002B070BD42F210754FF050264F
:10572400D6F80C3403F480333CB9002BF2D00120BA
:10573400FFF77AFF013DF3D1ECE7D6F80C2402F031
:1057440001022270002BE5D09DF807000128EFD05C
:10575400E0E742F210754FF05026D6F85C3403F4BB
:1057640080333CB9002BD5D00120FFF75DFF013D0C
:10577400F3D1CFE7D6F85C2402F001022270002BAB
:10578400C8D09DF807000128EFD0C3E742F2107596
:105794004FF05026D6F85434DB03BBD52CB9012086
:1057A400FFF742FF013DF5D1B4E79DF8070001285A
:1057B400F6D0AFE7FFF74DBFF7B51646DDE908476A
:1057C400019001A81D46FDF707F8019BB6F1000CF6
:1057D40018BF4FF0010C00EB83000B1E18BF012310
:1057E400002D43EA4C0314BF4FF00C0C4FF0000C97
:1057F400002C43EA0C0314BF4FF4706C4FF0000C00
:10580400002F43EA0C0314BF4FF4403C4FF0000C4C
:10581400D0F8002243EA0C0322EA030301B1097819
:105824000EB13678760019430DB12D78AD003143B1
:105834000CB12478240229430FB13F783F040C4370
:105844003C43C0F8004203B0F0BD1FB50DF10F0397
:10585400019300238DF80F101A4619460093FFF7A1
:10586400ABFF05B05DF804FB38B5054608460C46A9
:10587400FDF706F8B0B10846FCF7F6FF90B9084604
:10588400FCF7E6FF01232A688340C2F808332A683C
:1058940003B202EB8303D3F8102522F00302C3F80A
:1058A400102538BD2046BDE838400021FFF7CDBFA4
:1058B400FDF76AB8FFF7D8BF0369C26893429CBF7B
:1058C40081685B18013B981A70472DE9F041054641
:1058D400D0E902844068A8EB0406964220440F46AF
:1058E400144406D900F0B2FABFF35F8FEC60BDE850
:1058F400F0813246A4EB080400F0A8FA2246686856
:10590400B919EFE72DE9F8430646894617464FF0E3
:105914000008C5683369B4689D4228BF1B19641B1D
:10592400BC4228BF3C46013B5B1B9C4228BF1C4633
:10593400706849462246284400F088FAB368254432
:10594400AB4208BF0025A044A1443F1BBFF35F8FB7
:10595400F560002FDED14046BDE8F88338B5054632
:1059640008460C46FAF7F4FB214602462846BDE8F1
:105974003840FDF733BDFDF7D1BC08B5FFF7FBFF99
:10598400002008BD08B1FBF705BD7047EFF3118394
:10599400202383F31288BFF36F8FFEE708B5FFF768
:1059A400F5FF10B5D0E9003433B90020E26853782C
:1059B40043F00103537010BD204698470028F4D0EB
:1059C4000028B8BF4042FF28A8BFFF20E368187032
:1059D400ECE700F048BA00F039BA8268436913432F
:1059E40013F003030CD1C3600169994201D800206C
:1059F4007047C168013311604169C2600A44F3E72A
:105A04006FF01500704710B5C0E9043200238160BF
:105A140083610446FFF7E1FF0028A8BFC4E90044FE
:105A240010BDF8B504460D46EFF31186202383F329
:105A34001288BFF36F8FC7686FB900F0C1F850B117
:105A44008767456100F06EF8314604F10800BDE84F
:105A5400F840FEF749B9E3682B60A369E560013BB0
:105A6400A36186F31188BFF36F8FF8BD202408B5B6
:105A7400EFF3118384F31288BFF36F8FFFF70FFCEA
:105A8400F6E790F90E308B4201D0FEF7E9B800201A
:105A9400704703460020C3E90033C3E9020070479E
:105AA400EFF30580003818BF01207047FEF72EB9C8
:105AB400D0E9003213605A600023C0E90033704714
:105AC40008B5FFF7F5FF437B23F00203437300237C
:105AD400836008BD38B504460D46FDF7A1FF637B1E
